{"contracts/CopyTrading.sol":{"CopyTrading":{"abi":[{"inputs":[{"internalType":"address","name":"_feeRecipient","type":"address"}],"stateMutability":"nonpayable","type":"constructor"},{"inputs":[],"name":"EnforcedPause","type":"error"},{"inputs":[],"name":"ExpectedPause","type":"error"},{"inputs":[{"internalType":"address","name":"owner","type":"address"}],"name":"OwnableInvalidOwner","type":"error"},{"inputs":[{"internalType":"address","name":"account","type":"address"}],"name":"OwnableUnauthorizedAccount","type":"error"},{"inputs":[],"name":"ReentrancyGuardReentrantCall","type":"error"},{"anonymous":false,"inputs":[{"indexed":true,"internalType":"address","name":"follower","type":"address"},{"indexed":true,"internalType":"address","name":"trader","type":"address"},{"indexed":false,"internalType":"uint256","name":"allocation","type":"uint256"}],"name":"CopySettingsUpdated","type":"event"},{"anonymous":false,"inputs":[{"indexed":true,"internalType":"address","name":"trader","type":"address"},{"indexed":true,"internalType":"address","name":"follower","type":"address"},{"indexed":false,"internalType":"uint256","name":"amount","type":"uint256"}],"name":"FeesCollected","type":"event"},{"anonymous":false,"inputs":[{"indexed":true,"internalType":"address","name":"user","type":"address"},{"indexed":false,"internalType":"uint256","name":"amount","type":"uint256"}],"name":"FundsDeposited","type":"event"},{"anonymous":false,"inputs":[{"indexed":true,"internalType":"address","name":"user","type":"address"},{"indexed":false,"internalType":"uint256","name":"amount","type":"uint256"}],"name":"FundsWithdrawn","type":"event"},{"anonymous":false,"inputs":[{"indexed":true,"internalType":"address","name":"previousOwner","type":"address"},{"indexed":true,"internalType":"address","name":"newOwner","type":"address"}],"name":"OwnershipTransferred","type":"event"},{"anonymous":false,"inputs":[{"indexed":false,"internalType":"address","name":"account","type":"address"}],"name":"Paused","type":"event"},{"anonymous":false,"inputs":[{"indexed":true,"internalType":"uint256","name":"positionId","type":"uint256"},{"indexed":false,"internalType":"int256","name":"pnl","type":"int256"},{"indexed":false,"internalType":"uint256","name":"closedPrice","type":"uint256"}],"name":"PositionClosed","type":"event"},{"anonymous":false,"inputs":[{"indexed":true,"internalType":"uint256","name":"positionId","type":"uint256"},{"indexed":true,"internalType":"address","name":"trader","type":"address"},{"indexed":true,"internalType":"address","name":"follower","type":"address"},{"indexed":false,"internalType":"string","name":"symbol","type":"string"},{"indexed":false,"internalType":"bool","name":"isLong","type":"bool"},{"indexed":false,"internalType":"uint256","name":"size","type":"uint256"},{"indexed":false,"internalType":"uint256","name":"price","type":"uint256"}],"name":"PositionOpened","type":"event"},{"anonymous":false,"inputs":[{"indexed":true,"internalType":"address","name":"trader","type":"address"},{"indexed":false,"internalType":"string","name":"symbol","type":"string"},{"indexed":false,"internalType":"bool","name":"isLong","type":"bool"},{"indexed":false,"internalType":"uint256","name":"size","type":"uint256"},{"indexed":false,"internalType":"uint256","name":"price","type":"uint256"}],"name":"TradeExecuted","type":"event"},{"anonymous":false,"inputs":[{"indexed":true,"internalType":"address","name":"trader","type":"address"},{"indexed":false,"internalType":"uint256","name":"feeRate","type":"uint256"},{"indexed":false,"internalType":"uint256","name":"maxCopyAmount","type":"uint256"}],"name":"TraderRegistered","type":"event"},{"anonymous":false,"inputs":[{"indexed":true,"internalType":"address","name":"trader","type":"address"},{"indexed":false,"internalType":"uint256","name":"feeRate","type":"uint256"},{"indexed":false,"internalType":"uint256","name":"maxCopyAmount","type":"uint256"}],"name":"TraderUpdated","type":"event"},{"anonymous":false,"inputs":[{"indexed":true,"internalType":"address","name":"trader","type":"address"}],"name":"TraderVerified","type":"event"},{"anonymous":false,"inputs":[{"indexed":false,"internalType":"address","name":"account","type":"address"}],"name":"Unpaused","type":"event"},{"inputs":[],"name":"MAX_ALLOCATION","outputs":[{"internalType":"uint256","name":"","type":"uint256"}],"stateMutability":"view","type":"function"},{"inputs":[],"name":"MAX_LEVERAGE","outputs":[{"internalType":"uint256","name":"","type":"uint256"}],"stateMutability":"view","type":"function"},{"inputs":[{"internalType":"address","name":"_copier","type":"address"}],"name":"blockCopier","outputs":[],"stateMutability":"nonpayable","type":"function"},{"inputs":[{"internalType":"uint256","name":"_positionId","type":"uint256"},{"internalType":"uint256","name":"_exitPrice","type":"uint256"}],"name":"closePosition","outputs":[],"stateMutability":"nonpayable","type":"function"},{"inputs":[{"internalType":"address","name":"","type":"address"},{"internalType":"address","name":"","type":"address"}],"name":"copySettings","outputs":[{"internalType":"address","name":"trader","type":"address"},{"internalType":"uint256","name":"allocation","type":"uint256"},{"internalType":"uint256","name":"maxPositionSize","type":"uint256"},{"internalType":"uint256","name":"stopLoss","type":"uint256"},{"internalType":"uint256","name":"takeProfit","type":"uint256"},{"internalType":"bool","name":"isActive","type":"bool"},{"internalType":"uint256","name":"riskMultiplier","type":"uint256"}],"stateMutability":"view","type":"function"},{"inputs":[],"name":"deposit","outputs":[],"stateMutability":"payable","type":"function"},{"inputs":[{"internalType":"string","name":"_symbol","type":"string"},{"internalType":"bool","name":"_isLong","type":"bool"},{"internalType":"uint256","name":"_size","type":"uint256"},{"internalType":"uint256","name":"_price","type":"uint256"},{"internalType":"uint256","name":"_leverage","type":"uint256"}],"name":"executeTrade","outputs":[],"stateMutability":"nonpayable","type":"function"},{"inputs":[],"name":"feeRecipient","outputs":[{"internalType":"address","name":"","type":"address"}],"stateMutability":"view","type":"function"},{"inputs":[],"name":"getRegisteredTraders","outputs":[{"internalType":"address[]","name":"","type":"address[]"}],"stateMutability":"view","type":"function"},{"inputs":[{"internalType":"address","name":"_trader","type":"address"}],"name":"getTraderStats","outputs":[{"internalType":"uint256","name":"feeRate","type":"uint256"},{"internalType":"uint256","name":"totalFollowers","type":"uint256"},{"internalType":"uint256","name":"totalVolume","type":"uint256"},{"internalType":"int256","name":"totalPnL","type":"int256"},{"internalType":"bool","name":"isActive","type":"bool"}],"stateMutability":"view","type":"function"},{"inputs":[{"internalType":"address","name":"_user","type":"address"}],"name":"getUserOpenPositions","outputs":[{"internalType":"uint256[]","name":"","type":"uint256[]"}],"stateMutability":"view","type":"function"},{"inputs":[{"internalType":"address","name":"_user","type":"address"}],"name":"getUserPositions","outputs":[{"internalType":"uint256[]","name":"","type":"uint256[]"}],"stateMutability":"view","type":"function"},{"inputs":[],"name":"nextPositionId","outputs":[{"internalType":"uint256","name":"","type":"uint256"}],"stateMutability":"view","type":"function"},{"inputs":[],"name":"owner","outputs":[{"internalType":"address","name":"","type":"address"}],"stateMutability":"view","type":"function"},{"inputs":[],"name":"pause","outputs":[],"stateMutability":"nonpayable","type":"function"},{"inputs":[],"name":"paused","outputs":[{"internalType":"bool","name":"","type":"bool"}],"stateMutability":"view","type":"function"},{"inputs":[],"name":"platformFeeRate","outputs":[{"internalType":"uint256","name":"","type":"uint256"}],"stateMutability":"view","type":"function"},{"inputs":[{"internalType":"uint256","name":"","type":"uint256"}],"name":"positions","outputs":[{"internalType":"uint256","name":"id","type":"uint256"},{"internalType":"address","name":"trader","type":"address"},{"internalType":"address","name":"copier","type":"address"},{"internalType":"string","name":"symbol","type":"string"},{"internalType":"bool","name":"isLong","type":"bool"},{"internalType":"uint256","name":"size","type":"uint256"},{"internalType":"uint256","name":"entryPrice","type":"uint256"},{"internalType":"uint256","name":"leverage","type":"uint256"},{"internalType":"uint256","name":"timestamp","type":"uint256"},{"internalType":"bool","name":"isOpen","type":"bool"},{"internalType":"uint256","name":"exitPrice","type":"uint256"},{"internalType":"int256","name":"pnl","type":"int256"}],"stateMutability":"view","type":"function"},{"inputs":[{"internalType":"uint256","name":"_feeRate","type":"uint256"},{"internalType":"uint256","name":"_maxCopyAmount","type":"uint256"}],"name":"registerTrader","outputs":[],"stateMutability":"nonpayable","type":"function"},{"inputs":[{"internalType":"uint256","name":"","type":"uint256"}],"name":"registeredTraders","outputs":[{"internalType":"address","name":"","type":"address"}],"stateMutability":"view","type":"function"},{"inputs":[],"name":"renounceOwnership","outputs":[],"stateMutability":"nonpayable","type":"function"},{"inputs":[{"internalType":"address","name":"_trader","type":"address"},{"internalType":"uint256","name":"_allocation","type":"uint256"},{"internalType":"uint256","name":"_maxPositionSize","type":"uint256"},{"internalType":"uint256","name":"_stopLoss","type":"uint256"},{"internalType":"uint256","name":"_takeProfit","type":"uint256"},{"internalType":"uint256","name":"_riskMultiplier","type":"uint256"}],"name":"setCopySettings","outputs":[],"stateMutability":"payable","type":"function"},{"inputs":[{"internalType":"address","name":"_trader","type":"address"}],"name":"stopCopying","outputs":[],"stateMutability":"nonpayable","type":"function"},{"inputs":[{"internalType":"address","name":"","type":"address"}],"name":"traders","outputs":[{"internalType":"address","name":"trader","type":"address"},{"internalType":"bool","name":"isVerified","type":"bool"},{"internalType":"uint256","name":"totalVolume","type":"uint256"},{"internalType":"uint256","name":"totalTrades","type":"uint256"},{"internalType":"uint256","name":"followers","type":"uint256"},{"internalType":"uint256","name":"maxCopyAmount","type":"uint256"},{"internalType":"uint256","name":"feeRate","type":"uint256"}],"stateMutability":"view","type":"function"},{"inputs":[{"internalType":"address","name":"newOwner","type":"address"}],"name":"transferOwnership","outputs":[],"stateMutability":"nonpayable","type":"function"},{"inputs":[],"name":"unpause","outputs":[],"stateMutability":"nonpayable","type":"function"},{"inputs":[{"internalType":"uint256","name":"_newFeeRate","type":"uint256"}],"name":"updatePlatformFeeRate","outputs":[],"stateMutability":"nonpayable","type":"function"},{"inputs":[{"internalType":"uint256","name":"_feeRate","type":"uint256"},{"internalType":"uint256","name":"_maxCopyAmount","type":"uint256"}],"name":"updateTraderSettings","outputs":[],"stateMutability":"nonpayable","type":"function"},{"inputs":[{"internalType":"address","name":"","type":"address"}],"name":"userBalances","outputs":[{"internalType":"uint256","name":"","type":"uint256"}],"stateMutability":"view","type":"function"},{"inputs":[{"internalType":"address","name":"","type":"address"},{"internalType":"uint256","name":"","type":"uint256"}],"name":"userPositions","outputs":[{"internalType":"uint256","name":"","type":"uint256"}],"stateMutability":"view","type":"function"},{"inputs":[{"internalType":"address","name":"_trader","type":"address"}],"name":"verifyTrader","outputs":[],"stateMutability":"nonpayable","type":"function"},{"inputs":[{"internalType":"uint256","name":"_amount","type":"uint256"}],"name":"withdraw","outputs":[],"stateMutability":"nonpayable","type":"function"}],"evm":{"bytecode":{"linkReferences":{},"object":"6080604052600160075560646008553480156200001b57600080fd5b5060405162002277380380620022778339810160408190526200003e91620000ee565b600160005533806200006a57604051631e4fbdf760e01b81526000600482015260240160405180910390fd5b62000075816200009c565b50600980546001600160a01b0319166001600160a01b039290921691909117905562000120565b600180546001600160a01b038381166001600160a01b0319831681179093556040519116919082907f8be0079c531659141344cd1fd0a4f28419497f9722a3daafe3b4186f6b6457e090600090a35050565b6000602082840312156200010157600080fd5b81516001600160a01b03811681146200011957600080fd5b9392505050565b61214780620001306000396000f3fe6080604052600436106101e35760003560e01c8063715018a611610102578063ad428a3711610095578063c85a8ea211610064578063c85a8ea2146106f5578063d0e30db014610717578063eeca08f01461071f578063f2fde38b1461073557600080fd5b8063ad428a3714610616578063ae3b7f0614610636578063b8f174cf14610656578063c02495c31461067657600080fd5b80638da5cb5b116100d15780638da5cb5b1461050957806392a88fa21461052757806399fbab88146105c85780639b45ec971461060057600080fd5b8063715018a6146104a95780637860fa21146104be5780638456cb59146104de578063899346c7146104f357600080fd5b80634441aacb1161017a57806350b956341161014957806350b956341461041f5780635c975abb1461043f5780635e1b4d99146104695780636b3446d61461048957600080fd5b80634441aacb1461031a578063455ab8a01461033a57806346904840146103ec5780634cf3ed631461040c57600080fd5b80632a6bc2dd116101b65780632a6bc2dd146102985780632d6ce61d146102c55780632e1a7d4d146102e55780633f4ba83a1461030557600080fd5b80631ae078d5146101e85780631b25fa151461022557806326224c6414610247578063298f2ac414610282575b600080fd5b3480156101f457600080fd5b50610208610203366004611bab565b610755565b6040516001600160a01b0390911681526020015b60405180910390f35b34801561023157600080fd5b50610245610240366004611be0565b61077f565b005b34801561025357600080fd5b50610274610262366004611be0565b60066020526000908152604090205481565b60405190815260200161021c565b34801561028e57600080fd5b5061027461138881565b3480156102a457600080fd5b506102b86102b3366004611be0565b61089a565b60405161021c9190611c02565b3480156102d157600080fd5b506102456102e0366004611c46565b610906565b3480156102f157600080fd5b50610245610300366004611bab565b610cb9565b34801561031157600080fd5b50610245610dec565b34801561032657600080fd5b506102b8610335366004611be0565b610dfe565b34801561034657600080fd5b506103ab610355366004611c68565b6003602081815260009384526040808520909152918352912080546001820154600283015493830154600484015460058501546006909501546001600160a01b0390941695929492939192909160ff9091169087565b604080516001600160a01b03909816885260208801969096529486019390935260608501919091526080840152151560a083015260c082015260e00161021c565b3480156103f857600080fd5b50600954610208906001600160a01b031681565b61024561041a366004611c9b565b610fc0565b34801561042b57600080fd5b5061024561043a366004611be0565b6111da565b34801561044b57600080fd5b50600154600160a01b900460ff16604051901515815260200161021c565b34801561047557600080fd5b50610274610484366004611ce5565b611293565b34801561049557600080fd5b506102456104a4366004611c46565b6112c4565b3480156104b557600080fd5b50610245611440565b3480156104ca57600080fd5b506102456104d9366004611c46565b611452565b3480156104ea57600080fd5b5061024561156d565b3480156104ff57600080fd5b5061027460075481565b34801561051557600080fd5b506001546001600160a01b0316610208565b34801561053357600080fd5b50610589610542366004611be0565b60026020819052600091825260409091208054600182015492820154600383015460048401546005909401546001600160a01b03841695600160a01b90940460ff16949087565b604080516001600160a01b0390981688529515156020880152948601939093526060850191909152608084015260a083015260c082015260e00161021c565b3480156105d457600080fd5b506105e86105e3366004611bab565b61157d565b60405161021c9c9b9a99989796959493929190611d55565b34801561060c57600080fd5b5061027461271081565b34801561062257600080fd5b50610245610631366004611df6565b611677565b34801561064257600080fd5b50610245610651366004611bab565b61181b565b34801561066257600080fd5b50610245610671366004611be0565b61184a565b34801561068257600080fd5b506106cb610691366004611be0565b6001600160a01b0316600090815260026020526040812060058101546003820154600183015492549194909391600160a01b900460ff1690565b6040805195865260208601949094529284019190915260608301521515608082015260a00161021c565b34801561070157600080fd5b5061070a6118d4565b60405161021c9190611ed2565b610245611936565b34801561072b57600080fd5b5061027460085481565b34801561074157600080fd5b50610245610750366004611be0565b6119da565b600a818154811061076557600080fd5b6000918252602090912001546001600160a01b0316905081565b3360009081526003602090815260408083206001600160a01b03851684529091529020600581015460ff166107fb5760405162461bcd60e51b815260206004820152601760248201527f4e6f7420636f7079696e6720746869732074726164657200000000000000000060448201526064015b60405180910390fd5b60058101805460ff191690556001600160a01b03821660009081526002602052604090206003015415610855576001600160a01b038216600090815260026020526040812060030180549161084f83611f29565b91905055505b604051600081526001600160a01b0383169033907fd5f345449272693a6ea89c82dbe581351d745592c5bb577f7667ccd95172eb889060200160405180910390a35050565b6001600160a01b0381166000908152600460209081526040918290208054835181840281018401909452808452606093928301828280156108fa57602002820191906000526020600020905b8154815260200190600101908083116108e6575b50505050509050919050565b600082815260056020526040902060028101546001600160a01b031633148061093b575060018101546001600160a01b031633145b6109785760405162461bcd60e51b815260206004820152600e60248201526d139bdd08185d5d1a1bdc9a5e995960921b60448201526064016107f2565b600981015460ff166109cc5760405162461bcd60e51b815260206004820152601760248201527f506f736974696f6e20616c726561647920636c6f73656400000000000000000060448201526064016107f2565b60008211610a115760405162461bcd60e51b8152602060048201526012602482015271496e76616c6964206578697420707269636560701b60448201526064016107f2565b60098101805460ff19169055600a81018290556006810154600090610a369084611f40565b600483015490915060ff16610a5157610a4e81611f67565b90505b60068201546005830154610a659083611f83565b610a6f9190611fcf565b600b830181905560001215610bbc57600b82015460028301546001600160a01b031660009081526006602052604081208054909190610aaf908490611ffd565b909155505060018201546001600160a01b0316600090815260026020526040812060050154600b84015461271091610ae691612010565b610af09190612027565b9050600061271060085485600b0154610b099190612010565b610b139190612027565b60018501546001600160a01b0316600090815260066020526040812080549293508492909190610b44908490611ffd565b90915550506009546001600160a01b031660009081526006602052604081208054839290610b73908490611ffd565b90915550610b8390508183611ffd565b60028501546001600160a01b031660009081526006602052604081208054909190610baf90849061203b565b90915550610c7292505050565b600082600b01541215610c7257600082600b0154610bd990611f67565b60028401546001600160a01b0316600090815260066020526040902054909150811115610c3f5760405162461bcd60e51b8152602060048201526014602482015273496e73756666696369656e742062616c616e636560601b60448201526064016107f2565b60028301546001600160a01b031660009081526006602052604081208054839290610c6b90849061203b565b9091555050505b600b820154604080519182526020820185905285917f188c5a1621fdf38505775be572d11aceb0b1e5f518d210077c6f1ca91399d29d91015b60405180910390a250505050565b610cc1611a15565b60008111610d025760405162461bcd60e51b815260206004820152600e60248201526d125b9d985b1a5908185b5bdd5b9d60921b60448201526064016107f2565b33600090815260066020526040902054811115610d585760405162461bcd60e51b8152602060048201526014602482015273496e73756666696369656e742062616c616e636560601b60448201526064016107f2565b3360009081526006602052604081208054839290610d7790849061203b565b9091555050604051339082156108fc029083906000818181858888f19350505050158015610da9573d6000803e3d6000fd5b5060405181815233907feaff4b37086828766ad3268786972c0cd24259d4c87a80f9d3963a3c3d999b0d9060200160405180910390a2610de96001600055565b50565b610df4611a3f565b610dfc611a6c565b565b6001600160a01b0381166000908152600460209081526040808320805482518185028101850190935280835260609493830182828015610e5d57602002820191906000526020600020905b815481526020019060010190808311610e49575b505050505090506000805b8251811015610ecd5760056000848381518110610e8757610e8761204e565b60209081029190910181015182528101919091526040016000206009015460ff1615610ebb5781610eb781612064565b9250505b80610ec581612064565b915050610e68565b5060008167ffffffffffffffff811115610ee957610ee9611dd0565b604051908082528060200260200182016040528015610f12578160200160208202803683370190505b5090506000805b8451811015610fb55760056000868381518110610f3857610f3861204e565b60209081029190910181015182528101919091526040016000206009015460ff1615610fa357848181518110610f7057610f7061204e565b6020026020010151838381518110610f8a57610f8a61204e565b602090810291909101015281610f9f81612064565b9250505b80610fad81612064565b915050610f19565b509095945050505050565b6001600160a01b038616600090815260026020526040902054600160a01b900460ff166110255760405162461bcd60e51b8152602060048201526013602482015272151c9859195c881b9bdd081d995c9a599a5959606a1b60448201526064016107f2565b61138885111561106d5760405162461bcd60e51b8152602060048201526013602482015272082d8d8dec6c2e8d2dedc40e8dede40d0d2ced606b1b60448201526064016107f2565b614e208111156110bf5760405162461bcd60e51b815260206004820152601860248201527f5269736b206d756c7469706c69657220746f6f2068696768000000000000000060448201526064016107f2565b6001600160a01b038616600090815260026020908152604080832033845260060190915290205460ff161561112a5760405162461bcd60e51b8152602060048201526011602482015270213637b1b5b2b210313c903a3930b232b960791b60448201526064016107f2565b3360009081526003602081815260408084206001600160a01b038b16808652925290922080546001600160a01b0319169092178255600180830188905560028301879055908201859055600482018490556006820183905560058201805460ff191690911790556040518681526001600160a01b0388169033907fd5f345449272693a6ea89c82dbe581351d745592c5bb577f7667ccd95172eb889060200160405180910390a350505050505050565b6111e2611a3f565b6001600160a01b03818116600090815260026020526040902054166112415760405162461bcd60e51b8152602060048201526015602482015274151c9859195c881b9bdd081c9959da5cdd195c9959605a1b60448201526064016107f2565b6001600160a01b038116600081815260026020526040808220805460ff60a01b1916600160a01b179055517f1644dd3d2c8e5043d32e4908443aaf64bb66fc896c3736e3587058c2e2f48d899190a250565b600460205281600052604060002081815481106112af57600080fd5b90600052602060002001600091509150505481565b6103e88211156112e65760405162461bcd60e51b81526004016107f29061207d565b600081116113305760405162461bcd60e51b8152602060048201526017602482015276125b9d985b1a59081b585e0818dbdc1e48185b5bdd5b9d604a1b60448201526064016107f2565b33600081815260026020526040812080546001600160a01b031916909217825560058201849055600482018390556001905b600a548110156113be57336001600160a01b0316600a82815481106113895761138961204e565b6000918252602090912001546001600160a01b0316036113ac57600091506113be565b806113b681612064565b915050611362565b50801561140857600a80546001810182556000919091527fc65a7bb8d6351c1cf70c95a316cc6a92839c986682d98bc35f958f4883f9d2a80180546001600160a01b031916331790555b604080518581526020810185905233917fb21da2449cb57db93b012a0982d035eec835108a6107b2f930e794385d5d2f209101610cab565b611448611a3f565b610dfc6000611ac1565b336000818152600260205260409020546001600160a01b0316146114a75760405162461bcd60e51b815260206004820152600c60248201526b2737ba1030903a3930b232b960a11b60448201526064016107f2565b6103e88211156114c95760405162461bcd60e51b81526004016107f29061207d565b600081116115135760405162461bcd60e51b8152602060048201526017602482015276125b9d985b1a59081b585e0818dbdc1e48185b5bdd5b9d604a1b60448201526064016107f2565b336000818152600260209081526040918290206005810186905560040184905581518581529081018490527f3943d65e7410abc027f3c82f3da1779a4f256768c22389669c212406c8a8c267910160405180910390a25050565b611575611a3f565b610dfc611b13565b600560205260009081526040902080546001820154600283015460038401805493946001600160a01b039384169493909216926115b9906120a8565b80601f01602080910402602001604051908101604052809291908181526020018280546115e5906120a8565b80156116325780601f1061160757610100808354040283529160200191611632565b820191906000526020600020905b81548152906001019060200180831161161557829003601f168201915b505050600484015460058501546006860154600787015460088801546009890154600a8a0154600b909a0154989960ff9687169995985093965091949093911691908c565b61167f611b56565b33600090815260026020526040902054600160a01b900460ff166116db5760405162461bcd60e51b81526020600482015260136024820152722737ba103b32b934b334b2b2103a3930b232b960691b60448201526064016107f2565b6127108111156117215760405162461bcd60e51b8152602060048201526011602482015270098caeccae4c2ceca40e8dede40d0d2ced607b1b60448201526064016107f2565b6000831180156117315750600082115b6117725760405162461bcd60e51b8152602060048201526012602482015271496e76616c696420706172616d657465727360701b60448201526064016107f2565b33600090815260026020819052604082200180549161179083612064565b909155506117a090508284612010565b33600090815260026020526040812060010180549091906117c2908490611ffd565b909155506117cd9050565b336001600160a01b03167faa50eb31cc07432648d2950c825abb08a267324fab2d0e2ea28b6d4c410915728686868660405161180c94939291906120e2565b60405180910390a25050505050565b611823611a3f565b6101f48111156118455760405162461bcd60e51b81526004016107f29061207d565b600855565b336000818152600260205260409020546001600160a01b03161461189f5760405162461bcd60e51b815260206004820152600c60248201526b2737ba1030903a3930b232b960a11b60448201526064016107f2565b3360009081526002602090815260408083206001600160a01b039490941683526006909301905220805460ff19166001179055565b6060600a80548060200260200160405190810160405280929190818152602001828054801561192c57602002820191906000526020600020905b81546001600160a01b0316815260019091019060200180831161190e575b5050505050905090565b6000341161197f5760405162461bcd60e51b8152602060048201526016602482015275125b9d985b1a590819195c1bdcda5d08185b5bdd5b9d60521b60448201526064016107f2565b336000908152600660205260408120805434929061199e908490611ffd565b909155505060405134815233907f543ba50a5eec5e6178218e364b1d0f396157b3c8fa278522c2cb7fd99407d4749060200160405180910390a2565b6119e2611a3f565b6001600160a01b038116611a0c57604051631e4fbdf760e01b8152600060048201526024016107f2565b610de981611ac1565b600260005403611a3857604051633ee5aeb560e01b815260040160405180910390fd5b6002600055565b6001546001600160a01b03163314610dfc5760405163118cdaa760e01b81523360048201526024016107f2565b611a74611b81565b6001805460ff60a01b191690557f5db9ee0a495bf2e6ff9c91a7834c1ba4fdd244a5e8aa4e537bd38aeae4b073aa335b6040516001600160a01b03909116815260200160405180910390a1565b600180546001600160a01b038381166001600160a01b0319831681179093556040519116919082907f8be0079c531659141344cd1fd0a4f28419497f9722a3daafe3b4186f6b6457e090600090a35050565b611b1b611b56565b6001805460ff60a01b1916600160a01b1790557f62e78cea01bee320cd4e420270b5ea74000d11b0c9f74754ebdbfc544b05a258611aa43390565b600154600160a01b900460ff1615610dfc5760405163d93c066560e01b815260040160405180910390fd5b600154600160a01b900460ff16610dfc57604051638dfc202b60e01b815260040160405180910390fd5b600060208284031215611bbd57600080fd5b5035919050565b80356001600160a01b0381168114611bdb57600080fd5b919050565b600060208284031215611bf257600080fd5b611bfb82611bc4565b9392505050565b6020808252825182820181905260009190848201906040850190845b81811015611c3a57835183529284019291840191600101611c1e565b50909695505050505050565b60008060408385031215611c5957600080fd5b50508035926020909101359150565b60008060408385031215611c7b57600080fd5b611c8483611bc4565b9150611c9260208401611bc4565b90509250929050565b60008060008060008060c08789031215611cb457600080fd5b611cbd87611bc4565b9860208801359850604088013597606081013597506080810135965060a00135945092505050565b60008060408385031215611cf857600080fd5b611d0183611bc4565b946020939093013593505050565b6000815180845260005b81811015611d3557602081850181015186830182015201611d19565b506000602082860101526020601f19601f83011685010191505092915050565b8c81526001600160a01b038c811660208301528b16604082015261018060608201819052600090611d888382018d611d0f565b9a15156080840152505060a081019790975260c087019590955260e0860193909352610100850191909152151561012084015261014083015261016090910152949350505050565b634e487b7160e01b600052604160045260246000fd5b80358015158114611bdb57600080fd5b600080600080600060a08688031215611e0e57600080fd5b853567ffffffffffffffff80821115611e2657600080fd5b818801915088601f830112611e3a57600080fd5b813581811115611e4c57611e4c611dd0565b604051601f8201601f19908116603f01168101908382118183101715611e7457611e74611dd0565b816040528281528b6020848701011115611e8d57600080fd5b826020860160208301376000602084830101528099505050505050611eb460208701611de6565b94979496505050506040830135926060810135926080909101359150565b6020808252825182820181905260009190848201906040850190845b81811015611c3a5783516001600160a01b031683529284019291840191600101611eee565b634e487b7160e01b600052601160045260246000fd5b600081611f3857611f38611f13565b506000190190565b8181036000831280158383131683831282161715611f6057611f60611f13565b5092915050565b6000600160ff1b8201611f7c57611f7c611f13565b5060000390565b80820260008212600160ff1b84141615611f9f57611f9f611f13565b8181058314821517611fb357611fb3611f13565b92915050565b634e487b7160e01b600052601260045260246000fd5b600082611fde57611fde611fb9565b600160ff1b821460001984141615611ff857611ff8611f13565b500590565b80820180821115611fb357611fb3611f13565b8082028115828204841417611fb357611fb3611f13565b60008261203657612036611fb9565b500490565b81810381811115611fb357611fb3611f13565b634e487b7160e01b600052603260045260246000fd5b60006001820161207657612076611f13565b5060010190565b60208082526011908201527008ccaca40e4c2e8ca40e8dede40d0d2ced607b1b604082015260600190565b600181811c908216806120bc57607f821691505b6020821081036120dc57634e487b7160e01b600052602260045260246000fd5b50919050565b6080815260006120f56080830187611d0f565b941515602083015250604081019290925260609091015291905056fea26469706673582212203fc1ac14b0686e44ae833db04e4ff4fe0332a646471dedc7cfeae37b8ac6511664736f6c63430008140033","opcodes":"PUSH1 0x80 PUSH1 0x40 MSTORE PUSH1 0x1 PUSH1 0x7 SSTORE PUSH1 0x64 PUSH1 0x8 SSTORE CALLVALUE DUP1 ISZERO PUSH3 0x1B JUMPI PUSH1 0x0 DUP1 REVERT JUMPDEST POP PUSH1 0x40 MLOAD PUSH3 0x2277 CODESIZE SUB DUP1 PUSH3 0x2277 DUP4 CODECOPY DUP2 ADD PUSH1 0x40 DUP2 SWAP1 MSTORE PUSH3 0x3E SWAP2 PUSH3 0xEE JUMP JUMPDEST PUSH1 0x1 PUSH1 0x0 SSTORE CALLER DUP1 PUSH3 0x6A JUMPI PUSH1 0x40 MLOAD PUSH4 0x1E4FBDF7 PUSH1 0xE0 SHL DUP2 MSTORE PUSH1 0x0 PUSH1 0x4 DUP3 ADD MSTORE PUSH1 0x24 ADD PUSH1 0x40 MLOAD DUP1 SWAP2 SUB SWAP1 REVERT JUMPDEST PUSH3 0x75 DUP2 PUSH3 0x9C JUMP JUMPDEST POP PUSH1 0x9 DUP1 SLOAD PUSH1 0x1 PUSH1 0x1 PUSH1 0xA0 SHL SUB NOT AND PUSH1 0x1 PUSH1 0x1 PUSH1 0xA0 SHL SUB SWAP3 SWAP1 SWAP3 AND SWAP2 SWAP1 SWAP2 OR SWAP1 SSTORE PUSH3 0x120 JUMP JUMPDEST PUSH1 0x1 DUP1 SLOAD PUSH1 0x1 PUSH1 0x1 PUSH1 0xA0 SHL SUB DUP4 DUP2 AND PUSH1 0x1 PUSH1 0x1 PUSH1 0xA0 SHL SUB NOT DUP4 AND DUP2 OR SWAP1 SWAP4 SSTORE PUSH1 0x40 MLOAD SWAP2 AND SWAP2 SWAP1 DUP3 SWAP1 PUSH32 0x8BE0079C531659141344CD1FD0A4F28419497F9722A3DAAFE3B4186F6B6457E0 SWAP1 PUSH1 0x0 SWAP1 LOG3 POP POP JUMP JUMPDEST PUSH1 0x0 PUSH1 0x20 DUP3 DUP5 SUB SLT ISZERO PUSH3 0x101 JUMPI PUSH1 0x0 DUP1 REVERT JUMPDEST DUP2 MLOAD PUSH1 0x1 PUSH1 0x1 PUSH1 0xA0 SHL SUB DUP2 AND DUP2 EQ PUSH3 0x119 JUMPI PUSH1 0x0 DUP1 REVERT JUMPDEST SWAP4 SWAP3 POP POP POP JUMP JUMPDEST PUSH2 0x2147 DUP1 PUSH3 0x130 PUSH1 0x0 CODECOPY PUSH1 0x0 RETURN INVALID PUSH1 0x80 PUSH1 0x40 MSTORE PUSH1 0x4 CALLDATASIZE LT PUSH2 0x1E3 JUMPI PUSH1 0x0 CALLDATALOAD PUSH1 0xE0 SHR DUP1 PUSH4 0x715018A6 GT PUSH2 0x102 JUMPI DUP1 PUSH4 0xAD428A37 GT PUSH2 0x95 JUMPI DUP1 PUSH4 0xC85A8EA2 GT PUSH2 0x64 JUMPI DUP1 PUSH4 0xC85A8EA2 EQ PUSH2 0x6F5 JUMPI DUP1 PUSH4 0xD0E30DB0 EQ PUSH2 0x717 JUMPI DUP1 PUSH4 0xEECA08F0 EQ PUSH2 0x71F JUMPI DUP1 PUSH4 0xF2FDE38B EQ PUSH2 0x735 JUMPI PUSH1 0x0 DUP1 REVERT JUMPDEST DUP1 PUSH4 0xAD428A37 EQ PUSH2 0x616 JUMPI DUP1 PUSH4 0xAE3B7F06 EQ PUSH2 0x636 JUMPI DUP1 PUSH4 0xB8F174CF EQ PUSH2 0x656 JUMPI DUP1 PUSH4 0xC02495C3 EQ PUSH2 0x676 JUMPI PUSH1 0x0 DUP1 REVERT JUMPDEST DUP1 PUSH4 0x8DA5CB5B GT PUSH2 0xD1 JUMPI DUP1 PUSH4 0x8DA5CB5B EQ PUSH2 0x509 JUMPI DUP1 PUSH4 0x92A88FA2 EQ PUSH2 0x527 JUMPI DUP1 PUSH4 0x99FBAB88 EQ PUSH2 0x5C8 JUMPI DUP1 PUSH4 0x9B45EC97 EQ PUSH2 0x600 JUMPI PUSH1 0x0 DUP1 REVERT JUMPDEST DUP1 PUSH4 0x715018A6 EQ PUSH2 0x4A9 JUMPI DUP1 PUSH4 0x7860FA21 EQ PUSH2 0x4BE JUMPI DUP1 PUSH4 0x8456CB59 EQ PUSH2 0x4DE JUMPI DUP1 PUSH4 0x899346C7 EQ PUSH2 0x4F3 JUMPI PUSH1 0x0 DUP1 REVERT JUMPDEST DUP1 PUSH4 0x4441AACB GT PUSH2 0x17A JUMPI DUP1 PUSH4 0x50B95634 GT PUSH2 0x149 JUMPI DUP1 PUSH4 0x50B95634 EQ PUSH2 0x41F JUMPI DUP1 PUSH4 0x5C975ABB EQ PUSH2 0x43F JUMPI DUP1 PUSH4 0x5E1B4D99 EQ PUSH2 0x469 JUMPI DUP1 PUSH4 0x6B3446D6 EQ PUSH2 0x489 JUMPI PUSH1 0x0 DUP1 REVERT JUMPDEST DUP1 PUSH4 0x4441AACB EQ PUSH2 0x31A JUMPI DUP1 PUSH4 0x455AB8A0 EQ PUSH2 0x33A JUMPI DUP1 PUSH4 0x46904840 EQ PUSH2 0x3EC JUMPI DUP1 PUSH4 0x4CF3ED63 EQ PUSH2 0x40C JUMPI PUSH1 0x0 DUP1 REVERT JUMPDEST DUP1 PUSH4 0x2A6BC2DD GT PUSH2 0x1B6 JUMPI DUP1 PUSH4 0x2A6BC2DD EQ PUSH2 0x298 JUMPI DUP1 PUSH4 0x2D6CE61D EQ PUSH2 0x2C5 JUMPI DUP1 PUSH4 0x2E1A7D4D EQ PUSH2 0x2E5 JUMPI DUP1 PUSH4 0x3F4BA83A EQ PUSH2 0x305 JUMPI PUSH1 0x0 DUP1 REVERT JUMPDEST DUP1 PUSH4 0x1AE078D5 EQ PUSH2 0x1E8 JUMPI DUP1 PUSH4 0x1B25FA15 EQ PUSH2 0x225 JUMPI DUP1 PUSH4 0x26224C64 EQ PUSH2 0x247 JUMPI DUP1 PUSH4 0x298F2AC4 EQ PUSH2 0x282 JUMPI JUMPDEST PUSH1 0x0 DUP1 REVERT JUMPDEST CALLVALUE DUP1 ISZERO PUSH2 0x1F4 JUMPI PUSH1 0x0 DUP1 REVERT JUMPDEST POP PUSH2 0x208 PUSH2 0x203 CALLDATASIZE PUSH1 0x4 PUSH2 0x1BAB JUMP JUMPDEST PUSH2 0x755 JUMP JUMPDEST PUSH1 0x40 MLOAD PUSH1 0x1 PUSH1 0x1 PUSH1 0xA0 SHL SUB SWAP1 SWAP2 AND DUP2 MSTORE PUSH1 0x20 ADD JUMPDEST PUSH1 0x40 MLOAD DUP1 SWAP2 SUB SWAP1 RETURN JUMPDEST CALLVALUE DUP1 ISZERO PUSH2 0x231 JUMPI PUSH1 0x0 DUP1 REVERT JUMPDEST POP PUSH2 0x245 PUSH2 0x240 CALLDATASIZE PUSH1 0x4 PUSH2 0x1BE0 JUMP JUMPDEST PUSH2 0x77F JUMP JUMPDEST STOP JUMPDEST CALLVALUE DUP1 ISZERO PUSH2 0x253 JUMPI PUSH1 0x0 DUP1 REVERT JUMPDEST POP PUSH2 0x274 PUSH2 0x262 CALLDATASIZE PUSH1 0x4 PUSH2 0x1BE0 JUMP JUMPDEST PUSH1 0x6 PUSH1 0x20 MSTORE PUSH1 0x0 SWAP1 DUP2 MSTORE PUSH1 0x40 SWAP1 KECCAK256 SLOAD DUP2 JUMP JUMPDEST PUSH1 0x40 MLOAD SWAP1 DUP2 MSTORE PUSH1 0x20 ADD PUSH2 0x21C JUMP JUMPDEST CALLVALUE DUP1 ISZERO PUSH2 0x28E JUMPI PUSH1 0x0 DUP1 REVERT JUMPDEST POP PUSH2 0x274 PUSH2 0x1388 DUP2 JUMP JUMPDEST CALLVALUE DUP1 ISZERO PUSH2 0x2A4 JUMPI PUSH1 0x0 DUP1 REVERT JUMPDEST POP PUSH2 0x2B8 PUSH2 0x2B3 CALLDATASIZE PUSH1 0x4 PUSH2 0x1BE0 JUMP JUMPDEST PUSH2 0x89A JUMP JUMPDEST PUSH1 0x40 MLOAD PUSH2 0x21C SWAP2 SWAP1 PUSH2 0x1C02 JUMP JUMPDEST CALLVALUE DUP1 ISZERO PUSH2 0x2D1 JUMPI PUSH1 0x0 DUP1 REVERT JUMPDEST POP PUSH2 0x245 PUSH2 0x2E0 CALLDATASIZE PUSH1 0x4 PUSH2 0x1C46 JUMP JUMPDEST PUSH2 0x906 JUMP JUMPDEST CALLVALUE DUP1 ISZERO PUSH2 0x2F1 JUMPI PUSH1 0x0 DUP1 REVERT JUMPDEST POP PUSH2 0x245 PUSH2 0x300 CALLDATASIZE PUSH1 0x4 PUSH2 0x1BAB JUMP JUMPDEST PUSH2 0xCB9 JUMP JUMPDEST CALLVALUE DUP1 ISZERO PUSH2 0x311 JUMPI PUSH1 0x0 DUP1 REVERT JUMPDEST POP PUSH2 0x245 PUSH2 0xDEC JUMP JUMPDEST CALLVALUE DUP1 ISZERO PUSH2 0x326 JUMPI PUSH1 0x0 DUP1 REVERT JUMPDEST POP PUSH2 0x2B8 PUSH2 0x335 CALLDATASIZE PUSH1 0x4 PUSH2 0x1BE0 JUMP JUMPDEST PUSH2 0xDFE JUMP JUMPDEST CALLVALUE DUP1 ISZERO PUSH2 0x346 JUMPI PUSH1 0x0 DUP1 REVERT JUMPDEST POP PUSH2 0x3AB PUSH2 0x355 CALLDATASIZE PUSH1 0x4 PUSH2 0x1C68 JUMP JUMPDEST PUSH1 0x3 PUSH1 0x20 DUP2 DUP2 MSTORE PUSH1 0x0 SWAP4 DUP5 MSTORE PUSH1 0x40 DUP1 DUP6 KECCAK256 SWAP1 SWAP2 MSTORE SWAP2 DUP4 MSTORE SWAP2 KECCAK256 DUP1 SLOAD PUSH1 0x1 DUP3 ADD SLOAD PUSH1 0x2 DUP4 ADD SLOAD SWAP4 DUP4 ADD SLOAD PUSH1 0x4 DUP5 ADD SLOAD PUSH1 0x5 DUP6 ADD SLOAD PUSH1 0x6 SWAP1 SWAP6 ADD SLOAD PUSH1 0x1 PUSH1 0x1 PUSH1 0xA0 SHL SUB SWAP1 SWAP5 AND SWAP6 SWAP3 SWAP5 SWAP3 SWAP4 SWAP2 SWAP3 SWAP1 SWAP2 PUSH1 0xFF SWAP1 SWAP2 AND SWAP1 DUP8 JUMP JUMPDEST PUSH1 0x40 DUP1 MLOAD PUSH1 0x1 PUSH1 0x1 PUSH1 0xA0 SHL SUB SWAP1 SWAP9 AND DUP9 MSTORE PUSH1 0x20 DUP9 ADD SWAP7 SWAP1 SWAP7 MSTORE SWAP5 DUP7 ADD SWAP4 SWAP1 SWAP4 MSTORE PUSH1 0x60 DUP6 ADD SWAP2 SWAP1 SWAP2 MSTORE PUSH1 0x80 DUP5 ADD MSTORE ISZERO ISZERO PUSH1 0xA0 DUP4 ADD MSTORE PUSH1 0xC0 DUP3 ADD MSTORE PUSH1 0xE0 ADD PUSH2 0x21C JUMP JUMPDEST CALLVALUE DUP1 ISZERO PUSH2 0x3F8 JUMPI PUSH1 0x0 DUP1 REVERT JUMPDEST POP PUSH1 0x9 SLOAD PUSH2 0x208 SWAP1 PUSH1 0x1 PUSH1 0x1 PUSH1 0xA0 SHL SUB AND DUP2 JUMP JUMPDEST PUSH2 0x245 PUSH2 0x41A CALLDATASIZE PUSH1 0x4 PUSH2 0x1C9B JUMP JUMPDEST PUSH2 0xFC0 JUMP JUMPDEST CALLVALUE DUP1 ISZERO PUSH2 0x42B JUMPI PUSH1 0x0 DUP1 REVERT JUMPDEST POP PUSH2 0x245 PUSH2 0x43A CALLDATASIZE PUSH1 0x4 PUSH2 0x1BE0 JUMP JUMPDEST PUSH2 0x11DA JUMP JUMPDEST CALLVALUE DUP1 ISZERO PUSH2 0x44B JUMPI PUSH1 0x0 DUP1 REVERT JUMPDEST POP PUSH1 0x1 SLOAD PUSH1 0x1 PUSH1 0xA0 SHL SWAP1 DIV PUSH1 0xFF AND PUSH1 0x40 MLOAD SWAP1 ISZERO ISZERO DUP2 MSTORE PUSH1 0x20 ADD PUSH2 0x21C JUMP JUMPDEST CALLVALUE DUP1 ISZERO PUSH2 0x475 JUMPI PUSH1 0x0 DUP1 REVERT JUMPDEST POP PUSH2 0x274 PUSH2 0x484 CALLDATASIZE PUSH1 0x4 PUSH2 0x1CE5 JUMP JUMPDEST PUSH2 0x1293 JUMP JUMPDEST CALLVALUE DUP1 ISZERO PUSH2 0x495 JUMPI PUSH1 0x0 DUP1 REVERT JUMPDEST POP PUSH2 0x245 PUSH2 0x4A4 CALLDATASIZE PUSH1 0x4 PUSH2 0x1C46 JUMP JUMPDEST PUSH2 0x12C4 JUMP JUMPDEST CALLVALUE DUP1 ISZERO PUSH2 0x4B5 JUMPI PUSH1 0x0 DUP1 REVERT JUMPDEST POP PUSH2 0x245 PUSH2 0x1440 JUMP JUMPDEST CALLVALUE DUP1 ISZERO PUSH2 0x4CA JUMPI PUSH1 0x0 DUP1 REVERT JUMPDEST POP PUSH2 0x245 PUSH2 0x4D9 CALLDATASIZE PUSH1 0x4 PUSH2 0x1C46 JUMP JUMPDEST PUSH2 0x1452 JUMP JUMPDEST CALLVALUE DUP1 ISZERO PUSH2 0x4EA JUMPI PUSH1 0x0 DUP1 REVERT JUMPDEST POP PUSH2 0x245 PUSH2 0x156D JUMP JUMPDEST CALLVALUE DUP1 ISZERO PUSH2 0x4FF JUMPI PUSH1 0x0 DUP1 REVERT JUMPDEST POP PUSH2 0x274 PUSH1 0x7 SLOAD DUP2 JUMP JUMPDEST CALLVALUE DUP1 ISZERO PUSH2 0x515 JUMPI PUSH1 0x0 DUP1 REVERT JUMPDEST POP PUSH1 0x1 SLOAD PUSH1 0x1 PUSH1 0x1 PUSH1 0xA0 SHL SUB AND PUSH2 0x208 JUMP JUMPDEST CALLVALUE DUP1 ISZERO PUSH2 0x533 JUMPI PUSH1 0x0 DUP1 REVERT JUMPDEST POP PUSH2 0x589 PUSH2 0x542 CALLDATASIZE PUSH1 0x4 PUSH2 0x1BE0 JUMP JUMPDEST PUSH1 0x2 PUSH1 0x20 DUP2 SWAP1 MSTORE PUSH1 0x0 SWAP2 DUP3 MSTORE PUSH1 0x40 SWAP1 SWAP2 KECCAK256 DUP1 SLOAD PUSH1 0x1 DUP3 ADD SLOAD SWAP3 DUP3 ADD SLOAD PUSH1 0x3 DUP4 ADD SLOAD PUSH1 0x4 DUP5 ADD SLOAD PUSH1 0x5 SWAP1 SWAP5 ADD SLOAD PUSH1 0x1 PUSH1 0x1 PUSH1 0xA0 SHL SUB DUP5 AND SWAP6 PUSH1 0x1 PUSH1 0xA0 SHL SWAP1 SWAP5 DIV PUSH1 0xFF AND SWAP5 SWAP1 DUP8 JUMP JUMPDEST PUSH1 0x40 DUP1 MLOAD PUSH1 0x1 PUSH1 0x1 PUSH1 0xA0 SHL SUB SWAP1 SWAP9 AND DUP9 MSTORE SWAP6 ISZERO ISZERO PUSH1 0x20 DUP9 ADD MSTORE SWAP5 DUP7 ADD SWAP4 SWAP1 SWAP4 MSTORE PUSH1 0x60 DUP6 ADD SWAP2 SWAP1 SWAP2 MSTORE PUSH1 0x80 DUP5 ADD MSTORE PUSH1 0xA0 DUP4 ADD MSTORE PUSH1 0xC0 DUP3 ADD MSTORE PUSH1 0xE0 ADD PUSH2 0x21C JUMP JUMPDEST CALLVALUE DUP1 ISZERO PUSH2 0x5D4 JUMPI PUSH1 0x0 DUP1 REVERT JUMPDEST POP PUSH2 0x5E8 PUSH2 0x5E3 CALLDATASIZE PUSH1 0x4 PUSH2 0x1BAB JUMP JUMPDEST PUSH2 0x157D JUMP JUMPDEST PUSH1 0x40 MLOAD PUSH2 0x21C SWAP13 SWAP12 SWAP11 SWAP10 SWAP9 SWAP8 SWAP7 SWAP6 SWAP5 SWAP4 SWAP3 SWAP2 SWAP1 PUSH2 0x1D55 JUMP JUMPDEST CALLVALUE DUP1 ISZERO PUSH2 0x60C JUMPI PUSH1 0x0 DUP1 REVERT JUMPDEST POP PUSH2 0x274 PUSH2 0x2710 DUP2 JUMP JUMPDEST CALLVALUE DUP1 ISZERO PUSH2 0x622 JUMPI PUSH1 0x0 DUP1 REVERT JUMPDEST POP PUSH2 0x245 PUSH2 0x631 CALLDATASIZE PUSH1 0x4 PUSH2 0x1DF6 JUMP JUMPDEST PUSH2 0x1677 JUMP JUMPDEST CALLVALUE DUP1 ISZERO PUSH2 0x642 JUMPI PUSH1 0x0 DUP1 REVERT JUMPDEST POP PUSH2 0x245 PUSH2 0x651 CALLDATASIZE PUSH1 0x4 PUSH2 0x1BAB JUMP JUMPDEST PUSH2 0x181B JUMP JUMPDEST CALLVALUE DUP1 ISZERO PUSH2 0x662 JUMPI PUSH1 0x0 DUP1 REVERT JUMPDEST POP PUSH2 0x245 PUSH2 0x671 CALLDATASIZE PUSH1 0x4 PUSH2 0x1BE0 JUMP JUMPDEST PUSH2 0x184A JUMP JUMPDEST CALLVALUE DUP1 ISZERO PUSH2 0x682 JUMPI PUSH1 0x0 DUP1 REVERT JUMPDEST POP PUSH2 0x6CB PUSH2 0x691 CALLDATASIZE PUSH1 0x4 PUSH2 0x1BE0 JUMP JUMPDEST PUSH1 0x1 PUSH1 0x1 PUSH1 0xA0 SHL SUB AND PUSH1 0x0 SWAP1 DUP2 MSTORE PUSH1 0x2 PUSH1 0x20 MSTORE PUSH1 0x40 DUP2 KECCAK256 PUSH1 0x5 DUP2 ADD SLOAD PUSH1 0x3 DUP3 ADD SLOAD PUSH1 0x1 DUP4 ADD SLOAD SWAP3 SLOAD SWAP2 SWAP5 SWAP1 SWAP4 SWAP2 PUSH1 0x1 PUSH1 0xA0 SHL SWAP1 DIV PUSH1 0xFF AND SWAP1 JUMP JUMPDEST PUSH1 0x40 DUP1 MLOAD SWAP6 DUP7 MSTORE PUSH1 0x20 DUP7 ADD SWAP5 SWAP1 SWAP5 MSTORE SWAP3 DUP5 ADD SWAP2 SWAP1 SWAP2 MSTORE PUSH1 0x60 DUP4 ADD MSTORE ISZERO ISZERO PUSH1 0x80 DUP3 ADD MSTORE PUSH1 0xA0 ADD PUSH2 0x21C JUMP JUMPDEST CALLVALUE DUP1 ISZERO PUSH2 0x701 JUMPI PUSH1 0x0 DUP1 REVERT JUMPDEST POP PUSH2 0x70A PUSH2 0x18D4 JUMP JUMPDEST PUSH1 0x40 MLOAD PUSH2 0x21C SWAP2 SWAP1 PUSH2 0x1ED2 JUMP JUMPDEST PUSH2 0x245 PUSH2 0x1936 JUMP JUMPDEST CALLVALUE DUP1 ISZERO PUSH2 0x72B JUMPI PUSH1 0x0 DUP1 REVERT JUMPDEST POP PUSH2 0x274 PUSH1 0x8 SLOAD DUP2 JUMP JUMPDEST CALLVALUE DUP1 ISZERO PUSH2 0x741 JUMPI PUSH1 0x0 DUP1 REVERT JUMPDEST POP PUSH2 0x245 PUSH2 0x750 CALLDATASIZE PUSH1 0x4 PUSH2 0x1BE0 JUMP JUMPDEST PUSH2 0x19DA JUMP JUMPDEST PUSH1 0xA DUP2 DUP2 SLOAD DUP2 LT PUSH2 0x765 JUMPI PUSH1 0x0 DUP1 REVERT JUMPDEST PUSH1 0x0 SWAP2 DUP3 MSTORE PUSH1 0x20 SWAP1 SWAP2 KECCAK256 ADD SLOAD PUSH1 0x1 PUSH1 0x1 PUSH1 0xA0 SHL SUB AND SWAP1 POP DUP2 JUMP JUMPDEST CALLER PUSH1 0x0 SWAP1 DUP2 MSTORE PUSH1 0x3 PUSH1 0x20 SWAP1 DUP2 MSTORE PUSH1 0x40 DUP1 DUP4 KECCAK256 PUSH1 0x1 PUSH1 0x1 PUSH1 0xA0 SHL SUB DUP6 AND DUP5 MSTORE SWAP1 SWAP2 MSTORE SWAP1 KECCAK256 PUSH1 0x5 DUP2 ADD SLOAD PUSH1 0xFF AND PUSH2 0x7FB JUMPI PUSH1 0x40 MLOAD PUSH3 0x461BCD PUSH1 0xE5 SHL DUP2 MSTORE PUSH1 0x20 PUSH1 0x4 DUP3 ADD MSTORE PUSH1 0x17 PUSH1 0x24 DUP3 ADD MSTORE PUSH32 0x4E6F7420636F7079696E67207468697320747261646572000000000000000000 PUSH1 0x44 DUP3 ADD MSTORE PUSH1 0x64 ADD JUMPDEST PUSH1 0x40 MLOAD DUP1 SWAP2 SUB SWAP1 REVERT JUMPDEST PUSH1 0x5 DUP2 ADD DUP1 SLOAD PUSH1 0xFF NOT AND SWAP1 SSTORE PUSH1 0x1 PUSH1 0x1 PUSH1 0xA0 SHL SUB DUP3 AND PUSH1 0x0 SWAP1 DUP2 MSTORE PUSH1 0x2 PUSH1 0x20 MSTORE PUSH1 0x40 SWAP1 KECCAK256 PUSH1 0x3 ADD SLOAD ISZERO PUSH2 0x855 JUMPI PUSH1 0x1 PUSH1 0x1 PUSH1 0xA0 SHL SUB DUP3 AND PUSH1 0x0 SWAP1 DUP2 MSTORE PUSH1 0x2 PUSH1 0x20 MSTORE PUSH1 0x40 DUP2 KECCAK256 PUSH1 0x3 ADD DUP1 SLOAD SWAP2 PUSH2 0x84F DUP4 PUSH2 0x1F29 JUMP JUMPDEST SWAP2 SWAP1 POP SSTORE POP JUMPDEST PUSH1 0x40 MLOAD PUSH1 0x0 DUP2 MSTORE PUSH1 0x1 PUSH1 0x1 PUSH1 0xA0 SHL SUB DUP4 AND SWAP1 CALLER SWAP1 PUSH32 0xD5F345449272693A6EA89C82DBE581351D745592C5BB577F7667CCD95172EB88 SWAP1 PUSH1 0x20 ADD PUSH1 0x40 MLOAD DUP1 SWAP2 SUB SWAP1 LOG3 POP POP JUMP JUMPDEST PUSH1 0x1 PUSH1 0x1 PUSH1 0xA0 SHL SUB DUP2 AND PUSH1 0x0 SWAP1 DUP2 MSTORE PUSH1 0x4 PUSH1 0x20 SWAP1 DUP2 MSTORE PUSH1 0x40 SWAP2 DUP3 SWAP1 KECCAK256 DUP1 SLOAD DUP4 MLOAD DUP2 DUP5 MUL DUP2 ADD DUP5 ADD SWAP1 SWAP5 MSTORE DUP1 DUP5 MSTORE PUSH1 0x60 SWAP4 SWAP3 DUP4 ADD DUP3 DUP3 DUP1 ISZERO PUSH2 0x8FA JUMPI PUSH1 0x20 MUL DUP3 ADD SWAP2 SWAP1 PUSH1 0x0 MSTORE PUSH1 0x20 PUSH1 0x0 KECCAK256 SWAP1 JUMPDEST DUP2 SLOAD DUP2 MSTORE PUSH1 0x20 ADD SWAP1 PUSH1 0x1 ADD SWAP1 DUP1 DUP4 GT PUSH2 0x8E6 JUMPI JUMPDEST POP POP POP POP POP SWAP1 POP SWAP2 SWAP1 POP JUMP JUMPDEST PUSH1 0x0 DUP3 DUP2 MSTORE PUSH1 0x5 PUSH1 0x20 MSTORE PUSH1 0x40 SWAP1 KECCAK256 PUSH1 0x2 DUP2 ADD SLOAD PUSH1 0x1 PUSH1 0x1 PUSH1 0xA0 SHL SUB AND CALLER EQ DUP1 PUSH2 0x93B JUMPI POP PUSH1 0x1 DUP2 ADD SLOAD PUSH1 0x1 PUSH1 0x1 PUSH1 0xA0 SHL SUB AND CALLER EQ JUMPDEST PUSH2 0x978 JUMPI PUSH1 0x40 MLOAD PUSH3 0x461BCD PUSH1 0xE5 SHL DUP2 MSTORE PUSH1 0x20 PUSH1 0x4 DUP3 ADD MSTORE PUSH1 0xE PUSH1 0x24 DUP3 ADD MSTORE PUSH14 0x139BDD08185D5D1A1BDC9A5E9959 PUSH1 0x92 SHL PUSH1 0x44 DUP3 ADD MSTORE PUSH1 0x64 ADD PUSH2 0x7F2 JUMP JUMPDEST PUSH1 0x9 DUP2 ADD SLOAD PUSH1 0xFF AND PUSH2 0x9CC JUMPI PUSH1 0x40 MLOAD PUSH3 0x461BCD PUSH1 0xE5 SHL DUP2 MSTORE PUSH1 0x20 PUSH1 0x4 DUP3 ADD MSTORE PUSH1 0x17 PUSH1 0x24 DUP3 ADD MSTORE PUSH32 0x506F736974696F6E20616C726561647920636C6F736564000000000000000000 PUSH1 0x44 DUP3 ADD MSTORE PUSH1 0x64 ADD PUSH2 0x7F2 JUMP JUMPDEST PUSH1 0x0 DUP3 GT PUSH2 0xA11 JUMPI PUSH1 0x40 MLOAD PUSH3 0x461BCD PUSH1 0xE5 SHL DUP2 MSTORE PUSH1 0x20 PUSH1 0x4 DUP3 ADD MSTORE PUSH1 0x12 PUSH1 0x24 DUP3 ADD MSTORE PUSH18 0x496E76616C69642065786974207072696365 PUSH1 0x70 SHL PUSH1 0x44 DUP3 ADD MSTORE PUSH1 0x64 ADD PUSH2 0x7F2 JUMP JUMPDEST PUSH1 0x9 DUP2 ADD DUP1 SLOAD PUSH1 0xFF NOT AND SWAP1 SSTORE PUSH1 0xA DUP2 ADD DUP3 SWAP1 SSTORE PUSH1 0x6 DUP2 ADD SLOAD PUSH1 0x0 SWAP1 PUSH2 0xA36 SWAP1 DUP5 PUSH2 0x1F40 JUMP JUMPDEST PUSH1 0x4 DUP4 ADD SLOAD SWAP1 SWAP2 POP PUSH1 0xFF AND PUSH2 0xA51 JUMPI PUSH2 0xA4E DUP2 PUSH2 0x1F67 JUMP JUMPDEST SWAP1 POP JUMPDEST PUSH1 0x6 DUP3 ADD SLOAD PUSH1 0x5 DUP4 ADD SLOAD PUSH2 0xA65 SWAP1 DUP4 PUSH2 0x1F83 JUMP JUMPDEST PUSH2 0xA6F SWAP2 SWAP1 PUSH2 0x1FCF JUMP JUMPDEST PUSH1 0xB DUP4 ADD DUP2 SWAP1 SSTORE PUSH1 0x0 SLT ISZERO PUSH2 0xBBC JUMPI PUSH1 0xB DUP3 ADD SLOAD PUSH1 0x2 DUP4 ADD SLOAD PUSH1 0x1 PUSH1 0x1 PUSH1 0xA0 SHL SUB AND PUSH1 0x0 SWAP1 DUP2 MSTORE PUSH1 0x6 PUSH1 0x20 MSTORE PUSH1 0x40 DUP2 KECCAK256 DUP1 SLOAD SWAP1 SWAP2 SWAP1 PUSH2 0xAAF SWAP1 DUP5 SWAP1 PUSH2 0x1FFD JUMP JUMPDEST SWAP1 SWAP2 SSTORE POP POP PUSH1 0x1 DUP3 ADD SLOAD PUSH1 0x1 PUSH1 0x1 PUSH1 0xA0 SHL SUB AND PUSH1 0x0 SWAP1 DUP2 MSTORE PUSH1 0x2 PUSH1 0x20 MSTORE PUSH1 0x40 DUP2 KECCAK256 PUSH1 0x5 ADD SLOAD PUSH1 0xB DUP5 ADD SLOAD PUSH2 0x2710 SWAP2 PUSH2 0xAE6 SWAP2 PUSH2 0x2010 JUMP JUMPDEST PUSH2 0xAF0 SWAP2 SWAP1 PUSH2 0x2027 JUMP JUMPDEST SWAP1 POP PUSH1 0x0 PUSH2 0x2710 PUSH1 0x8 SLOAD DUP6 PUSH1 0xB ADD SLOAD PUSH2 0xB09 SWAP2 SWAP1 PUSH2 0x2010 JUMP JUMPDEST PUSH2 0xB13 SWAP2 SWAP1 PUSH2 0x2027 JUMP JUMPDEST PUSH1 0x1 DUP6 ADD SLOAD PUSH1 0x1 PUSH1 0x1 PUSH1 0xA0 SHL SUB AND PUSH1 0x0 SWAP1 DUP2 MSTORE PUSH1 0x6 PUSH1 0x20 MSTORE PUSH1 0x40 DUP2 KECCAK256 DUP1 SLOAD SWAP3 SWAP4 POP DUP5 SWAP3 SWAP1 SWAP2 SWAP1 PUSH2 0xB44 SWAP1 DUP5 SWAP1 PUSH2 0x1FFD JUMP JUMPDEST SWAP1 SWAP2 SSTORE POP POP PUSH1 0x9 SLOAD PUSH1 0x1 PUSH1 0x1 PUSH1 0xA0 SHL SUB AND PUSH1 0x0 SWAP1 DUP2 MSTORE PUSH1 0x6 PUSH1 0x20 MSTORE PUSH1 0x40 DUP2 KECCAK256 DUP1 SLOAD DUP4 SWAP3 SWAP1 PUSH2 0xB73 SWAP1 DUP5 SWAP1 PUSH2 0x1FFD JUMP JUMPDEST SWAP1 SWAP2 SSTORE POP PUSH2 0xB83 SWAP1 POP DUP2 DUP4 PUSH2 0x1FFD JUMP JUMPDEST PUSH1 0x2 DUP6 ADD SLOAD PUSH1 0x1 PUSH1 0x1 PUSH1 0xA0 SHL SUB AND PUSH1 0x0 SWAP1 DUP2 MSTORE PUSH1 0x6 PUSH1 0x20 MSTORE PUSH1 0x40 DUP2 KECCAK256 DUP1 SLOAD SWAP1 SWAP2 SWAP1 PUSH2 0xBAF SWAP1 DUP5 SWAP1 PUSH2 0x203B JUMP JUMPDEST SWAP1 SWAP2 SSTORE POP PUSH2 0xC72 SWAP3 POP POP POP JUMP JUMPDEST PUSH1 0x0 DUP3 PUSH1 0xB ADD SLOAD SLT ISZERO PUSH2 0xC72 JUMPI PUSH1 0x0 DUP3 PUSH1 0xB ADD SLOAD PUSH2 0xBD9 SWAP1 PUSH2 0x1F67 JUMP JUMPDEST PUSH1 0x2 DUP5 ADD SLOAD PUSH1 0x1 PUSH1 0x1 PUSH1 0xA0 SHL SUB AND PUSH1 0x0 SWAP1 DUP2 MSTORE PUSH1 0x6 PUSH1 0x20 MSTORE PUSH1 0x40 SWAP1 KECCAK256 SLOAD SWAP1 SWAP2 POP DUP2 GT ISZERO PUSH2 0xC3F JUMPI PUSH1 0x40 MLOAD PUSH3 0x461BCD PUSH1 0xE5 SHL DUP2 MSTORE PUSH1 0x20 PUSH1 0x4 DUP3 ADD MSTORE PUSH1 0x14 PUSH1 0x24 DUP3 ADD MSTORE PUSH20 0x496E73756666696369656E742062616C616E6365 PUSH1 0x60 SHL PUSH1 0x44 DUP3 ADD MSTORE PUSH1 0x64 ADD PUSH2 0x7F2 JUMP JUMPDEST PUSH1 0x2 DUP4 ADD SLOAD PUSH1 0x1 PUSH1 0x1 PUSH1 0xA0 SHL SUB AND PUSH1 0x0 SWAP1 DUP2 MSTORE PUSH1 0x6 PUSH1 0x20 MSTORE PUSH1 0x40 DUP2 KECCAK256 DUP1 SLOAD DUP4 SWAP3 SWAP1 PUSH2 0xC6B SWAP1 DUP5 SWAP1 PUSH2 0x203B JUMP JUMPDEST SWAP1 SWAP2 SSTORE POP POP POP JUMPDEST PUSH1 0xB DUP3 ADD SLOAD PUSH1 0x40 DUP1 MLOAD SWAP2 DUP3 MSTORE PUSH1 0x20 DUP3 ADD DUP6 SWAP1 MSTORE DUP6 SWAP2 PUSH32 0x188C5A1621FDF38505775BE572D11ACEB0B1E5F518D210077C6F1CA91399D29D SWAP2 ADD JUMPDEST PUSH1 0x40 MLOAD DUP1 SWAP2 SUB SWAP1 LOG2 POP POP POP POP JUMP JUMPDEST PUSH2 0xCC1 PUSH2 0x1A15 JUMP JUMPDEST PUSH1 0x0 DUP2 GT PUSH2 0xD02 JUMPI PUSH1 0x40 MLOAD PUSH3 0x461BCD PUSH1 0xE5 SHL DUP2 MSTORE PUSH1 0x20 PUSH1 0x4 DUP3 ADD MSTORE PUSH1 0xE PUSH1 0x24 DUP3 ADD MSTORE PUSH14 0x125B9D985B1A5908185B5BDD5B9D PUSH1 0x92 SHL PUSH1 0x44 DUP3 ADD MSTORE PUSH1 0x64 ADD PUSH2 0x7F2 JUMP JUMPDEST CALLER PUSH1 0x0 SWAP1 DUP2 MSTORE PUSH1 0x6 PUSH1 0x20 MSTORE PUSH1 0x40 SWAP1 KECCAK256 SLOAD DUP2 GT ISZERO PUSH2 0xD58 JUMPI PUSH1 0x40 MLOAD PUSH3 0x461BCD PUSH1 0xE5 SHL DUP2 MSTORE PUSH1 0x20 PUSH1 0x4 DUP3 ADD MSTORE PUSH1 0x14 PUSH1 0x24 DUP3 ADD MSTORE PUSH20 0x496E73756666696369656E742062616C616E6365 PUSH1 0x60 SHL PUSH1 0x44 DUP3 ADD MSTORE PUSH1 0x64 ADD PUSH2 0x7F2 JUMP JUMPDEST CALLER PUSH1 0x0 SWAP1 DUP2 MSTORE PUSH1 0x6 PUSH1 0x20 MSTORE PUSH1 0x40 DUP2 KECCAK256 DUP1 SLOAD DUP4 SWAP3 SWAP1 PUSH2 0xD77 SWAP1 DUP5 SWAP1 PUSH2 0x203B JUMP JUMPDEST SWAP1 SWAP2 SSTORE POP POP PUSH1 0x40 MLOAD CALLER SWAP1 DUP3 ISZERO PUSH2 0x8FC MUL SWAP1 DUP4 SWAP1 PUSH1 0x0 DUP2 DUP2 DUP2 DUP6 DUP9 DUP9 CALL SWAP4 POP POP POP POP ISZERO DUP1 ISZERO PUSH2 0xDA9 JUMPI RETURNDATASIZE PUSH1 0x0 DUP1 RETURNDATACOPY RETURNDATASIZE PUSH1 0x0 REVERT JUMPDEST POP PUSH1 0x40 MLOAD DUP2 DUP2 MSTORE CALLER SWAP1 PUSH32 0xEAFF4B37086828766AD3268786972C0CD24259D4C87A80F9D3963A3C3D999B0D SWAP1 PUSH1 0x20 ADD PUSH1 0x40 MLOAD DUP1 SWAP2 SUB SWAP1 LOG2 PUSH2 0xDE9 PUSH1 0x1 PUSH1 0x0 SSTORE JUMP JUMPDEST POP JUMP JUMPDEST PUSH2 0xDF4 PUSH2 0x1A3F JUMP JUMPDEST PUSH2 0xDFC PUSH2 0x1A6C JUMP JUMPDEST JUMP JUMPDEST PUSH1 0x1 PUSH1 0x1 PUSH1 0xA0 SHL SUB DUP2 AND PUSH1 0x0 SWAP1 DUP2 MSTORE PUSH1 0x4 PUSH1 0x20 SWAP1 DUP2 MSTORE PUSH1 0x40 DUP1 DUP4 KECCAK256 DUP1 SLOAD DUP3 MLOAD DUP2 DUP6 MUL DUP2 ADD DUP6 ADD SWAP1 SWAP4 MSTORE DUP1 DUP4 MSTORE PUSH1 0x60 SWAP5 SWAP4 DUP4 ADD DUP3 DUP3 DUP1 ISZERO PUSH2 0xE5D JUMPI PUSH1 0x20 MUL DUP3 ADD SWAP2 SWAP1 PUSH1 0x0 MSTORE PUSH1 0x20 PUSH1 0x0 KECCAK256 SWAP1 JUMPDEST DUP2 SLOAD DUP2 MSTORE PUSH1 0x20 ADD SWAP1 PUSH1 0x1 ADD SWAP1 DUP1 DUP4 GT PUSH2 0xE49 JUMPI JUMPDEST POP POP POP POP POP SWAP1 POP PUSH1 0x0 DUP1 JUMPDEST DUP3 MLOAD DUP2 LT ISZERO PUSH2 0xECD JUMPI PUSH1 0x5 PUSH1 0x0 DUP5 DUP4 DUP2 MLOAD DUP2 LT PUSH2 0xE87 JUMPI PUSH2 0xE87 PUSH2 0x204E JUMP JUMPDEST PUSH1 0x20 SWAP1 DUP2 MUL SWAP2 SWAP1 SWAP2 ADD DUP2 ADD MLOAD DUP3 MSTORE DUP2 ADD SWAP2 SWAP1 SWAP2 MSTORE PUSH1 0x40 ADD PUSH1 0x0 KECCAK256 PUSH1 0x9 ADD SLOAD PUSH1 0xFF AND ISZERO PUSH2 0xEBB JUMPI DUP2 PUSH2 0xEB7 DUP2 PUSH2 0x2064 JUMP JUMPDEST SWAP3 POP POP JUMPDEST DUP1 PUSH2 0xEC5 DUP2 PUSH2 0x2064 JUMP JUMPDEST SWAP2 POP POP PUSH2 0xE68 JUMP JUMPDEST POP PUSH1 0x0 DUP2 PUSH8 0xFFFFFFFFFFFFFFFF DUP2 GT ISZERO PUSH2 0xEE9 JUMPI PUSH2 0xEE9 PUSH2 0x1DD0 JUMP JUMPDEST PUSH1 0x40 MLOAD SWAP1 DUP1 DUP3 MSTORE DUP1 PUSH1 0x20 MUL PUSH1 0x20 ADD DUP3 ADD PUSH1 0x40 MSTORE DUP1 ISZERO PUSH2 0xF12 JUMPI DUP2 PUSH1 0x20 ADD PUSH1 0x20 DUP3 MUL DUP1 CALLDATASIZE DUP4 CALLDATACOPY ADD SWAP1 POP JUMPDEST POP SWAP1 POP PUSH1 0x0 DUP1 JUMPDEST DUP5 MLOAD DUP2 LT ISZERO PUSH2 0xFB5 JUMPI PUSH1 0x5 PUSH1 0x0 DUP7 DUP4 DUP2 MLOAD DUP2 LT PUSH2 0xF38 JUMPI PUSH2 0xF38 PUSH2 0x204E JUMP JUMPDEST PUSH1 0x20 SWAP1 DUP2 MUL SWAP2 SWAP1 SWAP2 ADD DUP2 ADD MLOAD DUP3 MSTORE DUP2 ADD SWAP2 SWAP1 SWAP2 MSTORE PUSH1 0x40 ADD PUSH1 0x0 KECCAK256 PUSH1 0x9 ADD SLOAD PUSH1 0xFF AND ISZERO PUSH2 0xFA3 JUMPI DUP5 DUP2 DUP2 MLOAD DUP2 LT PUSH2 0xF70 JUMPI PUSH2 0xF70 PUSH2 0x204E JUMP JUMPDEST PUSH1 0x20 MUL PUSH1 0x20 ADD ADD MLOAD DUP4 DUP4 DUP2 MLOAD DUP2 LT PUSH2 0xF8A JUMPI PUSH2 0xF8A PUSH2 0x204E JUMP JUMPDEST PUSH1 0x20 SWAP1 DUP2 MUL SWAP2 SWAP1 SWAP2 ADD ADD MSTORE DUP2 PUSH2 0xF9F DUP2 PUSH2 0x2064 JUMP JUMPDEST SWAP3 POP POP JUMPDEST DUP1 PUSH2 0xFAD DUP2 PUSH2 0x2064 JUMP JUMPDEST SWAP2 POP POP PUSH2 0xF19 JUMP JUMPDEST POP SWAP1 SWAP6 SWAP5 POP POP POP POP POP JUMP JUMPDEST PUSH1 0x1 PUSH1 0x1 PUSH1 0xA0 SHL SUB DUP7 AND PUSH1 0x0 SWAP1 DUP2 MSTORE PUSH1 0x2 PUSH1 0x20 MSTORE PUSH1 0x40 SWAP1 KECCAK256 SLOAD PUSH1 0x1 PUSH1 0xA0 SHL SWAP1 DIV PUSH1 0xFF AND PUSH2 0x1025 JUMPI PUSH1 0x40 MLOAD PUSH3 0x461BCD PUSH1 0xE5 SHL DUP2 MSTORE PUSH1 0x20 PUSH1 0x4 DUP3 ADD MSTORE PUSH1 0x13 PUSH1 0x24 DUP3 ADD MSTORE PUSH19 0x151C9859195C881B9BDD081D995C9A599A5959 PUSH1 0x6A SHL PUSH1 0x44 DUP3 ADD MSTORE PUSH1 0x64 ADD PUSH2 0x7F2 JUMP JUMPDEST PUSH2 0x1388 DUP6 GT ISZERO PUSH2 0x106D JUMPI PUSH1 0x40 MLOAD PUSH3 0x461BCD PUSH1 0xE5 SHL DUP2 MSTORE PUSH1 0x20 PUSH1 0x4 DUP3 ADD MSTORE PUSH1 0x13 PUSH1 0x24 DUP3 ADD MSTORE PUSH19 0x82D8D8DEC6C2E8D2DEDC40E8DEDE40D0D2CED PUSH1 0x6B SHL PUSH1 0x44 DUP3 ADD MSTORE PUSH1 0x64 ADD PUSH2 0x7F2 JUMP JUMPDEST PUSH2 0x4E20 DUP2 GT ISZERO PUSH2 0x10BF JUMPI PUSH1 0x40 MLOAD PUSH3 0x461BCD PUSH1 0xE5 SHL DUP2 MSTORE PUSH1 0x20 PUSH1 0x4 DUP3 ADD MSTORE PUSH1 0x18 PUSH1 0x24 DUP3 ADD MSTORE PUSH32 0x5269736B206D756C7469706C69657220746F6F20686967680000000000000000 PUSH1 0x44 DUP3 ADD MSTORE PUSH1 0x64 ADD PUSH2 0x7F2 JUMP JUMPDEST PUSH1 0x1 PUSH1 0x1 PUSH1 0xA0 SHL SUB DUP7 AND PUSH1 0x0 SWAP1 DUP2 MSTORE PUSH1 0x2 PUSH1 0x20 SWAP1 DUP2 MSTORE PUSH1 0x40 DUP1 DUP4 KECCAK256 CALLER DUP5 MSTORE PUSH1 0x6 ADD SWAP1 SWAP2 MSTORE SWAP1 KECCAK256 SLOAD PUSH1 0xFF AND ISZERO PUSH2 0x112A JUMPI PUSH1 0x40 MLOAD PUSH3 0x461BCD PUSH1 0xE5 SHL DUP2 MSTORE PUSH1 0x20 PUSH1 0x4 DUP3 ADD MSTORE PUSH1 0x11 PUSH1 0x24 DUP3 ADD MSTORE PUSH17 0x213637B1B5B2B210313C903A3930B232B9 PUSH1 0x79 SHL PUSH1 0x44 DUP3 ADD MSTORE PUSH1 0x64 ADD PUSH2 0x7F2 JUMP JUMPDEST CALLER PUSH1 0x0 SWAP1 DUP2 MSTORE PUSH1 0x3 PUSH1 0x20 DUP2 DUP2 MSTORE PUSH1 0x40 DUP1 DUP5 KECCAK256 PUSH1 0x1 PUSH1 0x1 PUSH1 0xA0 SHL SUB DUP12 AND DUP1 DUP7 MSTORE SWAP3 MSTORE SWAP1 SWAP3 KECCAK256 DUP1 SLOAD PUSH1 0x1 PUSH1 0x1 PUSH1 0xA0 SHL SUB NOT AND SWAP1 SWAP3 OR DUP3 SSTORE PUSH1 0x1 DUP1 DUP4 ADD DUP9 SWAP1 SSTORE PUSH1 0x2 DUP4 ADD DUP8 SWAP1 SSTORE SWAP1 DUP3 ADD DUP6 SWAP1 SSTORE PUSH1 0x4 DUP3 ADD DUP5 SWAP1 SSTORE PUSH1 0x6 DUP3 ADD DUP4 SWAP1 SSTORE PUSH1 0x5 DUP3 ADD DUP1 SLOAD PUSH1 0xFF NOT AND SWAP1 SWAP2 OR SWAP1 SSTORE PUSH1 0x40 MLOAD DUP7 DUP2 MSTORE PUSH1 0x1 PUSH1 0x1 PUSH1 0xA0 SHL SUB DUP9 AND SWAP1 CALLER SWAP1 PUSH32 0xD5F345449272693A6EA89C82DBE581351D745592C5BB577F7667CCD95172EB88 SWAP1 PUSH1 0x20 ADD PUSH1 0x40 MLOAD DUP1 SWAP2 SUB SWAP1 LOG3 POP POP POP POP POP POP POP JUMP JUMPDEST PUSH2 0x11E2 PUSH2 0x1A3F JUMP JUMPDEST PUSH1 0x1 PUSH1 0x1 PUSH1 0xA0 SHL SUB DUP2 DUP2 AND PUSH1 0x0 SWAP1 DUP2 MSTORE PUSH1 0x2 PUSH1 0x20 MSTORE PUSH1 0x40 SWAP1 KECCAK256 SLOAD AND PUSH2 0x1241 JUMPI PUSH1 0x40 MLOAD PUSH3 0x461BCD PUSH1 0xE5 SHL DUP2 MSTORE PUSH1 0x20 PUSH1 0x4 DUP3 ADD MSTORE PUSH1 0x15 PUSH1 0x24 DUP3 ADD MSTORE PUSH21 0x151C9859195C881B9BDD081C9959DA5CDD195C9959 PUSH1 0x5A SHL PUSH1 0x44 DUP3 ADD MSTORE PUSH1 0x64 ADD PUSH2 0x7F2 JUMP JUMPDEST PUSH1 0x1 PUSH1 0x1 PUSH1 0xA0 SHL SUB DUP2 AND PUSH1 0x0 DUP2 DUP2 MSTORE PUSH1 0x2 PUSH1 0x20 MSTORE PUSH1 0x40 DUP1 DUP3 KECCAK256 DUP1 SLOAD PUSH1 0xFF PUSH1 0xA0 SHL NOT AND PUSH1 0x1 PUSH1 0xA0 SHL OR SWAP1 SSTORE MLOAD PUSH32 0x1644DD3D2C8E5043D32E4908443AAF64BB66FC896C3736E3587058C2E2F48D89 SWAP2 SWAP1 LOG2 POP JUMP JUMPDEST PUSH1 0x4 PUSH1 0x20 MSTORE DUP2 PUSH1 0x0 MSTORE PUSH1 0x40 PUSH1 0x0 KECCAK256 DUP2 DUP2 SLOAD DUP2 LT PUSH2 0x12AF JUMPI PUSH1 0x0 DUP1 REVERT JUMPDEST SWAP1 PUSH1 0x0 MSTORE PUSH1 0x20 PUSH1 0x0 KECCAK256 ADD PUSH1 0x0 SWAP2 POP SWAP2 POP POP SLOAD DUP2 JUMP JUMPDEST PUSH2 0x3E8 DUP3 GT ISZERO PUSH2 0x12E6 JUMPI PUSH1 0x40 MLOAD PUSH3 0x461BCD PUSH1 0xE5 SHL DUP2 MSTORE PUSH1 0x4 ADD PUSH2 0x7F2 SWAP1 PUSH2 0x207D JUMP JUMPDEST PUSH1 0x0 DUP2 GT PUSH2 0x1330 JUMPI PUSH1 0x40 MLOAD PUSH3 0x461BCD PUSH1 0xE5 SHL DUP2 MSTORE PUSH1 0x20 PUSH1 0x4 DUP3 ADD MSTORE PUSH1 0x17 PUSH1 0x24 DUP3 ADD MSTORE PUSH23 0x125B9D985B1A59081B585E0818DBDC1E48185B5BDD5B9D PUSH1 0x4A SHL PUSH1 0x44 DUP3 ADD MSTORE PUSH1 0x64 ADD PUSH2 0x7F2 JUMP JUMPDEST CALLER PUSH1 0x0 DUP2 DUP2 MSTORE PUSH1 0x2 PUSH1 0x20 MSTORE PUSH1 0x40 DUP2 KECCAK256 DUP1 SLOAD PUSH1 0x1 PUSH1 0x1 PUSH1 0xA0 SHL SUB NOT AND SWAP1 SWAP3 OR DUP3 SSTORE PUSH1 0x5 DUP3 ADD DUP5 SWAP1 SSTORE PUSH1 0x4 DUP3 ADD DUP4 SWAP1 SSTORE PUSH1 0x1 SWAP1 JUMPDEST PUSH1 0xA SLOAD DUP2 LT ISZERO PUSH2 0x13BE JUMPI CALLER PUSH1 0x1 PUSH1 0x1 PUSH1 0xA0 SHL SUB AND PUSH1 0xA DUP3 DUP2 SLOAD DUP2 LT PUSH2 0x1389 JUMPI PUSH2 0x1389 PUSH2 0x204E JUMP JUMPDEST PUSH1 0x0 SWAP2 DUP3 MSTORE PUSH1 0x20 SWAP1 SWAP2 KECCAK256 ADD SLOAD PUSH1 0x1 PUSH1 0x1 PUSH1 0xA0 SHL SUB AND SUB PUSH2 0x13AC JUMPI PUSH1 0x0 SWAP2 POP PUSH2 0x13BE JUMP JUMPDEST DUP1 PUSH2 0x13B6 DUP2 PUSH2 0x2064 JUMP JUMPDEST SWAP2 POP POP PUSH2 0x1362 JUMP JUMPDEST POP DUP1 ISZERO PUSH2 0x1408 JUMPI PUSH1 0xA DUP1 SLOAD PUSH1 0x1 DUP2 ADD DUP3 SSTORE PUSH1 0x0 SWAP2 SWAP1 SWAP2 MSTORE PUSH32 0xC65A7BB8D6351C1CF70C95A316CC6A92839C986682D98BC35F958F4883F9D2A8 ADD DUP1 SLOAD PUSH1 0x1 PUSH1 0x1 PUSH1 0xA0 SHL SUB NOT AND CALLER OR SWAP1 SSTORE JUMPDEST PUSH1 0x40 DUP1 MLOAD DUP6 DUP2 MSTORE PUSH1 0x20 DUP2 ADD DUP6 SWAP1 MSTORE CALLER SWAP2 PUSH32 0xB21DA2449CB57DB93B012A0982D035EEC835108A6107B2F930E794385D5D2F20 SWAP2 ADD PUSH2 0xCAB JUMP JUMPDEST PUSH2 0x1448 PUSH2 0x1A3F JUMP JUMPDEST PUSH2 0xDFC PUSH1 0x0 PUSH2 0x1AC1 JUMP JUMPDEST CALLER PUSH1 0x0 DUP2 DUP2 MSTORE PUSH1 0x2 PUSH1 0x20 MSTORE PUSH1 0x40 SWAP1 KECCAK256 SLOAD PUSH1 0x1 PUSH1 0x1 PUSH1 0xA0 SHL SUB AND EQ PUSH2 0x14A7 JUMPI PUSH1 0x40 MLOAD PUSH3 0x461BCD PUSH1 0xE5 SHL DUP2 MSTORE PUSH1 0x20 PUSH1 0x4 DUP3 ADD MSTORE PUSH1 0xC PUSH1 0x24 DUP3 ADD MSTORE PUSH12 0x2737BA1030903A3930B232B9 PUSH1 0xA1 SHL PUSH1 0x44 DUP3 ADD MSTORE PUSH1 0x64 ADD PUSH2 0x7F2 JUMP JUMPDEST PUSH2 0x3E8 DUP3 GT ISZERO PUSH2 0x14C9 JUMPI PUSH1 0x40 MLOAD PUSH3 0x461BCD PUSH1 0xE5 SHL DUP2 MSTORE PUSH1 0x4 ADD PUSH2 0x7F2 SWAP1 PUSH2 0x207D JUMP JUMPDEST PUSH1 0x0 DUP2 GT PUSH2 0x1513 JUMPI PUSH1 0x40 MLOAD PUSH3 0x461BCD PUSH1 0xE5 SHL DUP2 MSTORE PUSH1 0x20 PUSH1 0x4 DUP3 ADD MSTORE PUSH1 0x17 PUSH1 0x24 DUP3 ADD MSTORE PUSH23 0x125B9D985B1A59081B585E0818DBDC1E48185B5BDD5B9D PUSH1 0x4A SHL PUSH1 0x44 DUP3 ADD MSTORE PUSH1 0x64 ADD PUSH2 0x7F2 JUMP JUMPDEST CALLER PUSH1 0x0 DUP2 DUP2 MSTORE PUSH1 0x2 PUSH1 0x20 SWAP1 DUP2 MSTORE PUSH1 0x40 SWAP2 DUP3 SWAP1 KECCAK256 PUSH1 0x5 DUP2 ADD DUP7 SWAP1 SSTORE PUSH1 0x4 ADD DUP5 SWAP1 SSTORE DUP2 MLOAD DUP6 DUP2 MSTORE SWAP1 DUP2 ADD DUP5 SWAP1 MSTORE PUSH32 0x3943D65E7410ABC027F3C82F3DA1779A4F256768C22389669C212406C8A8C267 SWAP2 ADD PUSH1 0x40 MLOAD DUP1 SWAP2 SUB SWAP1 LOG2 POP POP JUMP JUMPDEST PUSH2 0x1575 PUSH2 0x1A3F JUMP JUMPDEST PUSH2 0xDFC PUSH2 0x1B13 JUMP JUMPDEST PUSH1 0x5 PUSH1 0x20 MSTORE PUSH1 0x0 SWAP1 DUP2 MSTORE PUSH1 0x40 SWAP1 KECCAK256 DUP1 SLOAD PUSH1 0x1 DUP3 ADD SLOAD PUSH1 0x2 DUP4 ADD SLOAD PUSH1 0x3 DUP5 ADD DUP1 SLOAD SWAP4 SWAP5 PUSH1 0x1 PUSH1 0x1 PUSH1 0xA0 SHL SUB SWAP4 DUP5 AND SWAP5 SWAP4 SWAP1 SWAP3 AND SWAP3 PUSH2 0x15B9 SWAP1 PUSH2 0x20A8 JUMP JUMPDEST DUP1 PUSH1 0x1F ADD PUSH1 0x20 DUP1 SWAP2 DIV MUL PUSH1 0x20 ADD PUSH1 0x40 MLOAD SWAP1 DUP2 ADD PUSH1 0x40 MSTORE DUP1 SWAP3 SWAP2 SWAP1 DUP2 DUP2 MSTORE PUSH1 0x20 ADD DUP3 DUP1 SLOAD PUSH2 0x15E5 SWAP1 PUSH2 0x20A8 JUMP JUMPDEST DUP1 ISZERO PUSH2 0x1632 JUMPI DUP1 PUSH1 0x1F LT PUSH2 0x1607 JUMPI PUSH2 0x100 DUP1 DUP4 SLOAD DIV MUL DUP4 MSTORE SWAP2 PUSH1 0x20 ADD SWAP2 PUSH2 0x1632 JUMP JUMPDEST DUP3 ADD SWAP2 SWAP1 PUSH1 0x0 MSTORE PUSH1 0x20 PUSH1 0x0 KECCAK256 SWAP1 JUMPDEST DUP2 SLOAD DUP2 MSTORE SWAP1 PUSH1 0x1 ADD SWAP1 PUSH1 0x20 ADD DUP1 DUP4 GT PUSH2 0x1615 JUMPI DUP3 SWAP1 SUB PUSH1 0x1F AND DUP3 ADD SWAP2 JUMPDEST POP POP POP PUSH1 0x4 DUP5 ADD SLOAD PUSH1 0x5 DUP6 ADD SLOAD PUSH1 0x6 DUP7 ADD SLOAD PUSH1 0x7 DUP8 ADD SLOAD PUSH1 0x8 DUP9 ADD SLOAD PUSH1 0x9 DUP10 ADD SLOAD PUSH1 0xA DUP11 ADD SLOAD PUSH1 0xB SWAP1 SWAP11 ADD SLOAD SWAP9 SWAP10 PUSH1 0xFF SWAP7 DUP8 AND SWAP10 SWAP6 SWAP9 POP SWAP4 SWAP7 POP SWAP2 SWAP5 SWAP1 SWAP4 SWAP2 AND SWAP2 SWAP1 DUP13 JUMP JUMPDEST PUSH2 0x167F PUSH2 0x1B56 JUMP JUMPDEST CALLER PUSH1 0x0 SWAP1 DUP2 MSTORE PUSH1 0x2 PUSH1 0x20 MSTORE PUSH1 0x40 SWAP1 KECCAK256 SLOAD PUSH1 0x1 PUSH1 0xA0 SHL SWAP1 DIV PUSH1 0xFF AND PUSH2 0x16DB JUMPI PUSH1 0x40 MLOAD PUSH3 0x461BCD PUSH1 0xE5 SHL DUP2 MSTORE PUSH1 0x20 PUSH1 0x4 DUP3 ADD MSTORE PUSH1 0x13 PUSH1 0x24 DUP3 ADD MSTORE PUSH19 0x2737BA103B32B934B334B2B2103A3930B232B9 PUSH1 0x69 SHL PUSH1 0x44 DUP3 ADD MSTORE PUSH1 0x64 ADD PUSH2 0x7F2 JUMP JUMPDEST PUSH2 0x2710 DUP2 GT ISZERO PUSH2 0x1721 JUMPI PUSH1 0x40 MLOAD PUSH3 0x461BCD PUSH1 0xE5 SHL DUP2 MSTORE PUSH1 0x20 PUSH1 0x4 DUP3 ADD MSTORE PUSH1 0x11 PUSH1 0x24 DUP3 ADD MSTORE PUSH17 0x98CAECCAE4C2CECA40E8DEDE40D0D2CED PUSH1 0x7B SHL PUSH1 0x44 DUP3 ADD MSTORE PUSH1 0x64 ADD PUSH2 0x7F2 JUMP JUMPDEST PUSH1 0x0 DUP4 GT DUP1 ISZERO PUSH2 0x1731 JUMPI POP PUSH1 0x0 DUP3 GT JUMPDEST PUSH2 0x1772 JUMPI PUSH1 0x40 MLOAD PUSH3 0x461BCD PUSH1 0xE5 SHL DUP2 MSTORE PUSH1 0x20 PUSH1 0x4 DUP3 ADD MSTORE PUSH1 0x12 PUSH1 0x24 DUP3 ADD MSTORE PUSH18 0x496E76616C696420706172616D6574657273 PUSH1 0x70 SHL PUSH1 0x44 DUP3 ADD MSTORE PUSH1 0x64 ADD PUSH2 0x7F2 JUMP JUMPDEST CALLER PUSH1 0x0 SWAP1 DUP2 MSTORE PUSH1 0x2 PUSH1 0x20 DUP2 SWAP1 MSTORE PUSH1 0x40 DUP3 KECCAK256 ADD DUP1 SLOAD SWAP2 PUSH2 0x1790 DUP4 PUSH2 0x2064 JUMP JUMPDEST SWAP1 SWAP2 SSTORE POP PUSH2 0x17A0 SWAP1 POP DUP3 DUP5 PUSH2 0x2010 JUMP JUMPDEST CALLER PUSH1 0x0 SWAP1 DUP2 MSTORE PUSH1 0x2 PUSH1 0x20 MSTORE PUSH1 0x40 DUP2 KECCAK256 PUSH1 0x1 ADD DUP1 SLOAD SWAP1 SWAP2 SWAP1 PUSH2 0x17C2 SWAP1 DUP5 SWAP1 PUSH2 0x1FFD JUMP JUMPDEST SWAP1 SWAP2 SSTORE POP PUSH2 0x17CD SWAP1 POP JUMP JUMPDEST CALLER PUSH1 0x1 PUSH1 0x1 PUSH1 0xA0 SHL SUB AND PUSH32 0xAA50EB31CC07432648D2950C825ABB08A267324FAB2D0E2EA28B6D4C41091572 DUP7 DUP7 DUP7 DUP7 PUSH1 0x40 MLOAD PUSH2 0x180C SWAP5 SWAP4 SWAP3 SWAP2 SWAP1 PUSH2 0x20E2 JUMP JUMPDEST PUSH1 0x40 MLOAD DUP1 SWAP2 SUB SWAP1 LOG2 POP POP POP POP POP JUMP JUMPDEST PUSH2 0x1823 PUSH2 0x1A3F JUMP JUMPDEST PUSH2 0x1F4 DUP2 GT ISZERO PUSH2 0x1845 JUMPI PUSH1 0x40 MLOAD PUSH3 0x461BCD PUSH1 0xE5 SHL DUP2 MSTORE PUSH1 0x4 ADD PUSH2 0x7F2 SWAP1 PUSH2 0x207D JUMP JUMPDEST PUSH1 0x8 SSTORE JUMP JUMPDEST CALLER PUSH1 0x0 DUP2 DUP2 MSTORE PUSH1 0x2 PUSH1 0x20 MSTORE PUSH1 0x40 SWAP1 KECCAK256 SLOAD PUSH1 0x1 PUSH1 0x1 PUSH1 0xA0 SHL SUB AND EQ PUSH2 0x189F JUMPI PUSH1 0x40 MLOAD PUSH3 0x461BCD PUSH1 0xE5 SHL DUP2 MSTORE PUSH1 0x20 PUSH1 0x4 DUP3 ADD MSTORE PUSH1 0xC PUSH1 0x24 DUP3 ADD MSTORE PUSH12 0x2737BA1030903A3930B232B9 PUSH1 0xA1 SHL PUSH1 0x44 DUP3 ADD MSTORE PUSH1 0x64 ADD PUSH2 0x7F2 JUMP JUMPDEST CALLER PUSH1 0x0 SWAP1 DUP2 MSTORE PUSH1 0x2 PUSH1 0x20 SWAP1 DUP2 MSTORE PUSH1 0x40 DUP1 DUP4 KECCAK256 PUSH1 0x1 PUSH1 0x1 PUSH1 0xA0 SHL SUB SWAP5 SWAP1 SWAP5 AND DUP4 MSTORE PUSH1 0x6 SWAP1 SWAP4 ADD SWAP1 MSTORE KECCAK256 DUP1 SLOAD PUSH1 0xFF NOT AND PUSH1 0x1 OR SWAP1 SSTORE JUMP JUMPDEST PUSH1 0x60 PUSH1 0xA DUP1 SLOAD DUP1 PUSH1 0x20 MUL PUSH1 0x20 ADD PUSH1 0x40 MLOAD SWAP1 DUP2 ADD PUSH1 0x40 MSTORE DUP1 SWAP3 SWAP2 SWAP1 DUP2 DUP2 MSTORE PUSH1 0x20 ADD DUP3 DUP1 SLOAD DUP1 ISZERO PUSH2 0x192C JUMPI PUSH1 0x20 MUL DUP3 ADD SWAP2 SWAP1 PUSH1 0x0 MSTORE PUSH1 0x20 PUSH1 0x0 KECCAK256 SWAP1 JUMPDEST DUP2 SLOAD PUSH1 0x1 PUSH1 0x1 PUSH1 0xA0 SHL SUB AND DUP2 MSTORE PUSH1 0x1 SWAP1 SWAP2 ADD SWAP1 PUSH1 0x20 ADD DUP1 DUP4 GT PUSH2 0x190E JUMPI JUMPDEST POP POP POP POP POP SWAP1 POP SWAP1 JUMP JUMPDEST PUSH1 0x0 CALLVALUE GT PUSH2 0x197F JUMPI PUSH1 0x40 MLOAD PUSH3 0x461BCD PUSH1 0xE5 SHL DUP2 MSTORE PUSH1 0x20 PUSH1 0x4 DUP3 ADD MSTORE PUSH1 0x16 PUSH1 0x24 DUP3 ADD MSTORE PUSH22 0x125B9D985B1A590819195C1BDCDA5D08185B5BDD5B9D PUSH1 0x52 SHL PUSH1 0x44 DUP3 ADD MSTORE PUSH1 0x64 ADD PUSH2 0x7F2 JUMP JUMPDEST CALLER PUSH1 0x0 SWAP1 DUP2 MSTORE PUSH1 0x6 PUSH1 0x20 MSTORE PUSH1 0x40 DUP2 KECCAK256 DUP1 SLOAD CALLVALUE SWAP3 SWAP1 PUSH2 0x199E SWAP1 DUP5 SWAP1 PUSH2 0x1FFD JUMP JUMPDEST SWAP1 SWAP2 SSTORE POP POP PUSH1 0x40 MLOAD CALLVALUE DUP2 MSTORE CALLER SWAP1 PUSH32 0x543BA50A5EEC5E6178218E364B1D0F396157B3C8FA278522C2CB7FD99407D474 SWAP1 PUSH1 0x20 ADD PUSH1 0x40 MLOAD DUP1 SWAP2 SUB SWAP1 LOG2 JUMP JUMPDEST PUSH2 0x19E2 PUSH2 0x1A3F JUMP JUMPDEST PUSH1 0x1 PUSH1 0x1 PUSH1 0xA0 SHL SUB DUP2 AND PUSH2 0x1A0C JUMPI PUSH1 0x40 MLOAD PUSH4 0x1E4FBDF7 PUSH1 0xE0 SHL DUP2 MSTORE PUSH1 0x0 PUSH1 0x4 DUP3 ADD MSTORE PUSH1 0x24 ADD PUSH2 0x7F2 JUMP JUMPDEST PUSH2 0xDE9 DUP2 PUSH2 0x1AC1 JUMP JUMPDEST PUSH1 0x2 PUSH1 0x0 SLOAD SUB PUSH2 0x1A38 JUMPI PUSH1 0x40 MLOAD PUSH4 0x3EE5AEB5 PUSH1 0xE0 SHL DUP2 MSTORE PUSH1 0x4 ADD PUSH1 0x40 MLOAD DUP1 SWAP2 SUB SWAP1 REVERT JUMPDEST PUSH1 0x2 PUSH1 0x0 SSTORE JUMP JUMPDEST PUSH1 0x1 SLOAD PUSH1 0x1 PUSH1 0x1 PUSH1 0xA0 SHL SUB AND CALLER EQ PUSH2 0xDFC JUMPI PUSH1 0x40 MLOAD PUSH4 0x118CDAA7 PUSH1 0xE0 SHL DUP2 MSTORE CALLER PUSH1 0x4 DUP3 ADD MSTORE PUSH1 0x24 ADD PUSH2 0x7F2 JUMP JUMPDEST PUSH2 0x1A74 PUSH2 0x1B81 JUMP JUMPDEST PUSH1 0x1 DUP1 SLOAD PUSH1 0xFF PUSH1 0xA0 SHL NOT AND SWAP1 SSTORE PUSH32 0x5DB9EE0A495BF2E6FF9C91A7834C1BA4FDD244A5E8AA4E537BD38AEAE4B073AA CALLER JUMPDEST PUSH1 0x40 MLOAD PUSH1 0x1 PUSH1 0x1 PUSH1 0xA0 SHL SUB SWAP1 SWAP2 AND DUP2 MSTORE PUSH1 0x20 ADD PUSH1 0x40 MLOAD DUP1 SWAP2 SUB SWAP1 LOG1 JUMP JUMPDEST PUSH1 0x1 DUP1 SLOAD PUSH1 0x1 PUSH1 0x1 PUSH1 0xA0 SHL SUB DUP4 DUP2 AND PUSH1 0x1 PUSH1 0x1 PUSH1 0xA0 SHL SUB NOT DUP4 AND DUP2 OR SWAP1 SWAP4 SSTORE PUSH1 0x40 MLOAD SWAP2 AND SWAP2 SWAP1 DUP3 SWAP1 PUSH32 0x8BE0079C531659141344CD1FD0A4F28419497F9722A3DAAFE3B4186F6B6457E0 SWAP1 PUSH1 0x0 SWAP1 LOG3 POP POP JUMP JUMPDEST PUSH2 0x1B1B PUSH2 0x1B56 JUMP JUMPDEST PUSH1 0x1 DUP1 SLOAD PUSH1 0xFF PUSH1 0xA0 SHL NOT AND PUSH1 0x1 PUSH1 0xA0 SHL OR SWAP1 SSTORE PUSH32 0x62E78CEA01BEE320CD4E420270B5EA74000D11B0C9F74754EBDBFC544B05A258 PUSH2 0x1AA4 CALLER SWAP1 JUMP JUMPDEST PUSH1 0x1 SLOAD PUSH1 0x1 PUSH1 0xA0 SHL SWAP1 DIV PUSH1 0xFF AND ISZERO PUSH2 0xDFC JUMPI PUSH1 0x40 MLOAD PUSH4 0xD93C0665 PUSH1 0xE0 SHL DUP2 MSTORE PUSH1 0x4 ADD PUSH1 0x40 MLOAD DUP1 SWAP2 SUB SWAP1 REVERT JUMPDEST PUSH1 0x1 SLOAD PUSH1 0x1 PUSH1 0xA0 SHL SWAP1 DIV PUSH1 0xFF AND PUSH2 0xDFC JUMPI PUSH1 0x40 MLOAD PUSH4 0x8DFC202B PUSH1 0xE0 SHL DUP2 MSTORE PUSH1 0x4 ADD PUSH1 0x40 MLOAD DUP1 SWAP2 SUB SWAP1 REVERT JUMPDEST PUSH1 0x0 PUSH1 0x20 DUP3 DUP5 SUB SLT ISZERO PUSH2 0x1BBD JUMPI PUSH1 0x0 DUP1 REVERT JUMPDEST POP CALLDATALOAD SWAP2 SWAP1 POP JUMP JUMPDEST DUP1 CALLDATALOAD PUSH1 0x1 PUSH1 0x1 PUSH1 0xA0 SHL SUB DUP2 AND DUP2 EQ PUSH2 0x1BDB JUMPI PUSH1 0x0 DUP1 REVERT JUMPDEST SWAP2 SWAP1 POP JUMP JUMPDEST PUSH1 0x0 PUSH1 0x20 DUP3 DUP5 SUB SLT ISZERO PUSH2 0x1BF2 JUMPI PUSH1 0x0 DUP1 REVERT JUMPDEST PUSH2 0x1BFB DUP3 PUSH2 0x1BC4 JUMP JUMPDEST SWAP4 SWAP3 POP POP POP JUMP JUMPDEST PUSH1 0x20 DUP1 DUP3 MSTORE DUP3 MLOAD DUP3 DUP3 ADD DUP2 SWAP1 MSTORE PUSH1 0x0 SWAP2 SWAP1 DUP5 DUP3 ADD SWAP1 PUSH1 0x40 DUP6 ADD SWAP1 DUP5 JUMPDEST DUP2 DUP2 LT ISZERO PUSH2 0x1C3A JUMPI DUP4 MLOAD DUP4 MSTORE SWAP3 DUP5 ADD SWAP3 SWAP2 DUP5 ADD SWAP2 PUSH1 0x1 ADD PUSH2 0x1C1E JUMP JUMPDEST POP SWAP1 SWAP7 SWAP6 POP POP POP POP POP POP JUMP JUMPDEST PUSH1 0x0 DUP1 PUSH1 0x40 DUP4 DUP6 SUB SLT ISZERO PUSH2 0x1C59 JUMPI PUSH1 0x0 DUP1 REVERT JUMPDEST POP POP DUP1 CALLDATALOAD SWAP3 PUSH1 0x20 SWAP1 SWAP2 ADD CALLDATALOAD SWAP2 POP JUMP JUMPDEST PUSH1 0x0 DUP1 PUSH1 0x40 DUP4 DUP6 SUB SLT ISZERO PUSH2 0x1C7B JUMPI PUSH1 0x0 DUP1 REVERT JUMPDEST PUSH2 0x1C84 DUP4 PUSH2 0x1BC4 JUMP JUMPDEST SWAP2 POP PUSH2 0x1C92 PUSH1 0x20 DUP5 ADD PUSH2 0x1BC4 JUMP JUMPDEST SWAP1 POP SWAP3 POP SWAP3 SWAP1 POP JUMP JUMPDEST PUSH1 0x0 DUP1 PUSH1 0x0 DUP1 PUSH1 0x0 DUP1 PUSH1 0xC0 DUP8 DUP10 SUB SLT ISZERO PUSH2 0x1CB4 JUMPI PUSH1 0x0 DUP1 REVERT JUMPDEST PUSH2 0x1CBD DUP8 PUSH2 0x1BC4 JUMP JUMPDEST SWAP9 PUSH1 0x20 DUP9 ADD CALLDATALOAD SWAP9 POP PUSH1 0x40 DUP9 ADD CALLDATALOAD SWAP8 PUSH1 0x60 DUP2 ADD CALLDATALOAD SWAP8 POP PUSH1 0x80 DUP2 ADD CALLDATALOAD SWAP7 POP PUSH1 0xA0 ADD CALLDATALOAD SWAP5 POP SWAP3 POP POP POP JUMP JUMPDEST PUSH1 0x0 DUP1 PUSH1 0x40 DUP4 DUP6 SUB SLT ISZERO PUSH2 0x1CF8 JUMPI PUSH1 0x0 DUP1 REVERT JUMPDEST PUSH2 0x1D01 DUP4 PUSH2 0x1BC4 JUMP JUMPDEST SWAP5 PUSH1 0x20 SWAP4 SWAP1 SWAP4 ADD CALLDATALOAD SWAP4 POP POP POP JUMP JUMPDEST PUSH1 0x0 DUP2 MLOAD DUP1 DUP5 MSTORE PUSH1 0x0 JUMPDEST DUP2 DUP2 LT ISZERO PUSH2 0x1D35 JUMPI PUSH1 0x20 DUP2 DUP6 ADD DUP2 ADD MLOAD DUP7 DUP4 ADD DUP3 ADD MSTORE ADD PUSH2 0x1D19 JUMP JUMPDEST POP PUSH1 0x0 PUSH1 0x20 DUP3 DUP7 ADD ADD MSTORE PUSH1 0x20 PUSH1 0x1F NOT PUSH1 0x1F DUP4 ADD AND DUP6 ADD ADD SWAP2 POP POP SWAP3 SWAP2 POP POP JUMP JUMPDEST DUP13 DUP2 MSTORE PUSH1 0x1 PUSH1 0x1 PUSH1 0xA0 SHL SUB DUP13 DUP2 AND PUSH1 0x20 DUP4 ADD MSTORE DUP12 AND PUSH1 0x40 DUP3 ADD MSTORE PUSH2 0x180 PUSH1 0x60 DUP3 ADD DUP2 SWAP1 MSTORE PUSH1 0x0 SWAP1 PUSH2 0x1D88 DUP4 DUP3 ADD DUP14 PUSH2 0x1D0F JUMP JUMPDEST SWAP11 ISZERO ISZERO PUSH1 0x80 DUP5 ADD MSTORE POP POP PUSH1 0xA0 DUP2 ADD SWAP8 SWAP1 SWAP8 MSTORE PUSH1 0xC0 DUP8 ADD SWAP6 SWAP1 SWAP6 MSTORE PUSH1 0xE0 DUP7 ADD SWAP4 SWAP1 SWAP4 MSTORE PUSH2 0x100 DUP6 ADD SWAP2 SWAP1 SWAP2 MSTORE ISZERO ISZERO PUSH2 0x120 DUP5 ADD MSTORE PUSH2 0x140 DUP4 ADD MSTORE PUSH2 0x160 SWAP1 SWAP2 ADD MSTORE SWAP5 SWAP4 POP POP POP POP JUMP JUMPDEST PUSH4 0x4E487B71 PUSH1 0xE0 SHL PUSH1 0x0 MSTORE PUSH1 0x41 PUSH1 0x4 MSTORE PUSH1 0x24 PUSH1 0x0 REVERT JUMPDEST DUP1 CALLDATALOAD DUP1 ISZERO ISZERO DUP2 EQ PUSH2 0x1BDB JUMPI PUSH1 0x0 DUP1 REVERT JUMPDEST PUSH1 0x0 DUP1 PUSH1 0x0 DUP1 PUSH1 0x0 PUSH1 0xA0 DUP7 DUP9 SUB SLT ISZERO PUSH2 0x1E0E JUMPI PUSH1 0x0 DUP1 REVERT JUMPDEST DUP6 CALLDATALOAD PUSH8 0xFFFFFFFFFFFFFFFF DUP1 DUP3 GT ISZERO PUSH2 0x1E26 JUMPI PUSH1 0x0 DUP1 REVERT JUMPDEST DUP2 DUP9 ADD SWAP2 POP DUP9 PUSH1 0x1F DUP4 ADD SLT PUSH2 0x1E3A JUMPI PUSH1 0x0 DUP1 REVERT JUMPDEST DUP2 CALLDATALOAD DUP2 DUP2 GT ISZERO PUSH2 0x1E4C JUMPI PUSH2 0x1E4C PUSH2 0x1DD0 JUMP JUMPDEST PUSH1 0x40 MLOAD PUSH1 0x1F DUP3 ADD PUSH1 0x1F NOT SWAP1 DUP2 AND PUSH1 0x3F ADD AND DUP2 ADD SWAP1 DUP4 DUP3 GT DUP2 DUP4 LT OR ISZERO PUSH2 0x1E74 JUMPI PUSH2 0x1E74 PUSH2 0x1DD0 JUMP JUMPDEST DUP2 PUSH1 0x40 MSTORE DUP3 DUP2 MSTORE DUP12 PUSH1 0x20 DUP5 DUP8 ADD ADD GT ISZERO PUSH2 0x1E8D JUMPI PUSH1 0x0 DUP1 REVERT JUMPDEST DUP3 PUSH1 0x20 DUP7 ADD PUSH1 0x20 DUP4 ADD CALLDATACOPY PUSH1 0x0 PUSH1 0x20 DUP5 DUP4 ADD ADD MSTORE DUP1 SWAP10 POP POP POP POP POP POP PUSH2 0x1EB4 PUSH1 0x20 DUP8 ADD PUSH2 0x1DE6 JUMP JUMPDEST SWAP5 SWAP8 SWAP5 SWAP7 POP POP POP POP PUSH1 0x40 DUP4 ADD CALLDATALOAD SWAP3 PUSH1 0x60 DUP2 ADD CALLDATALOAD SWAP3 PUSH1 0x80 SWAP1 SWAP2 ADD CALLDATALOAD SWAP2 POP JUMP JUMPDEST PUSH1 0x20 DUP1 DUP3 MSTORE DUP3 MLOAD DUP3 DUP3 ADD DUP2 SWAP1 MSTORE PUSH1 0x0 SWAP2 SWAP1 DUP5 DUP3 ADD SWAP1 PUSH1 0x40 DUP6 ADD SWAP1 DUP5 JUMPDEST DUP2 DUP2 LT ISZERO PUSH2 0x1C3A JUMPI DUP4 MLOAD PUSH1 0x1 PUSH1 0x1 PUSH1 0xA0 SHL SUB AND DUP4 MSTORE SWAP3 DUP5 ADD SWAP3 SWAP2 DUP5 ADD SWAP2 PUSH1 0x1 ADD PUSH2 0x1EEE JUMP JUMPDEST PUSH4 0x4E487B71 PUSH1 0xE0 SHL PUSH1 0x0 MSTORE PUSH1 0x11 PUSH1 0x4 MSTORE PUSH1 0x24 PUSH1 0x0 REVERT JUMPDEST PUSH1 0x0 DUP2 PUSH2 0x1F38 JUMPI PUSH2 0x1F38 PUSH2 0x1F13 JUMP JUMPDEST POP PUSH1 0x0 NOT ADD SWAP1 JUMP JUMPDEST DUP2 DUP2 SUB PUSH1 0x0 DUP4 SLT DUP1 ISZERO DUP4 DUP4 SGT AND DUP4 DUP4 SLT DUP3 AND OR ISZERO PUSH2 0x1F60 JUMPI PUSH2 0x1F60 PUSH2 0x1F13 JUMP JUMPDEST POP SWAP3 SWAP2 POP POP JUMP JUMPDEST PUSH1 0x0 PUSH1 0x1 PUSH1 0xFF SHL DUP3 ADD PUSH2 0x1F7C JUMPI PUSH2 0x1F7C PUSH2 0x1F13 JUMP JUMPDEST POP PUSH1 0x0 SUB SWAP1 JUMP JUMPDEST DUP1 DUP3 MUL PUSH1 0x0 DUP3 SLT PUSH1 0x1 PUSH1 0xFF SHL DUP5 EQ AND ISZERO PUSH2 0x1F9F JUMPI PUSH2 0x1F9F PUSH2 0x1F13 JUMP JUMPDEST DUP2 DUP2 SDIV DUP4 EQ DUP3 ISZERO OR PUSH2 0x1FB3 JUMPI PUSH2 0x1FB3 PUSH2 0x1F13 JUMP JUMPDEST SWAP3 SWAP2 POP POP JUMP JUMPDEST PUSH4 0x4E487B71 PUSH1 0xE0 SHL PUSH1 0x0 MSTORE PUSH1 0x12 PUSH1 0x4 MSTORE PUSH1 0x24 PUSH1 0x0 REVERT JUMPDEST PUSH1 0x0 DUP3 PUSH2 0x1FDE JUMPI PUSH2 0x1FDE PUSH2 0x1FB9 JUMP JUMPDEST PUSH1 0x1 PUSH1 0xFF SHL DUP3 EQ PUSH1 0x0 NOT DUP5 EQ AND ISZERO PUSH2 0x1FF8 JUMPI PUSH2 0x1FF8 PUSH2 0x1F13 JUMP JUMPDEST POP SDIV SWAP1 JUMP JUMPDEST DUP1 DUP3 ADD DUP1 DUP3 GT ISZERO PUSH2 0x1FB3 JUMPI PUSH2 0x1FB3 PUSH2 0x1F13 JUMP JUMPDEST DUP1 DUP3 MUL DUP2 ISZERO DUP3 DUP3 DIV DUP5 EQ OR PUSH2 0x1FB3 JUMPI PUSH2 0x1FB3 PUSH2 0x1F13 JUMP JUMPDEST PUSH1 0x0 DUP3 PUSH2 0x2036 JUMPI PUSH2 0x2036 PUSH2 0x1FB9 JUMP JUMPDEST POP DIV SWAP1 JUMP JUMPDEST DUP2 DUP2 SUB DUP2 DUP2 GT ISZERO PUSH2 0x1FB3 JUMPI PUSH2 0x1FB3 PUSH2 0x1F13 JUMP JUMPDEST PUSH4 0x4E487B71 PUSH1 0xE0 SHL PUSH1 0x0 MSTORE PUSH1 0x32 PUSH1 0x4 MSTORE PUSH1 0x24 PUSH1 0x0 REVERT JUMPDEST PUSH1 0x0 PUSH1 0x1 DUP3 ADD PUSH2 0x2076 JUMPI PUSH2 0x2076 PUSH2 0x1F13 JUMP JUMPDEST POP PUSH1 0x1 ADD SWAP1 JUMP JUMPDEST PUSH1 0x20 DUP1 DUP3 MSTORE PUSH1 0x11 SWAP1 DUP3 ADD MSTORE PUSH17 0x8CCACA40E4C2E8CA40E8DEDE40D0D2CED PUSH1 0x7B SHL PUSH1 0x40 DUP3 ADD MSTORE PUSH1 0x60 ADD SWAP1 JUMP JUMPDEST PUSH1 0x1 DUP2 DUP2 SHR SWAP1 DUP3 AND DUP1 PUSH2 0x20BC JUMPI PUSH1 0x7F DUP3 AND SWAP2 POP JUMPDEST PUSH1 0x20 DUP3 LT DUP2 SUB PUSH2 0x20DC JUMPI PUSH4 0x4E487B71 PUSH1 0xE0 SHL PUSH1 0x0 MSTORE PUSH1 0x22 PUSH1 0x4 MSTORE PUSH1 0x24 PUSH1 0x0 REVERT JUMPDEST POP SWAP2 SWAP1 POP JUMP JUMPDEST PUSH1 0x80 DUP2 MSTORE PUSH1 0x0 PUSH2 0x20F5 PUSH1 0x80 DUP4 ADD DUP8 PUSH2 0x1D0F JUMP JUMPDEST SWAP5 ISZERO ISZERO PUSH1 0x20 DUP4 ADD MSTORE POP PUSH1 0x40 DUP2 ADD SWAP3 SWAP1 SWAP3 MSTORE PUSH1 0x60 SWAP1 SWAP2 ADD MSTORE SWAP2 SWAP1 POP JUMP INVALID LOG2 PUSH5 0x6970667358 0x22 SLT KECCAK256 EXTCODEHASH 0xC1 0xAC EQ 0xB0 PUSH9 0x6E44AE833DB04E4FF4 INVALID SUB ORIGIN 0xA6 CHAINID SELFBALANCE SAR 0xED 0xC7 0xCF 0xEA 0xE3 PUSH28 0x8AC6511664736F6C6343000814003300000000000000000000000000 "},"methodIdentifiers":{"MAX_ALLOCATION()":"298f2ac4","MAX_LEVERAGE()":"9b45ec97","blockCopier(address)":"b8f174cf","closePosition(uint256,uint256)":"2d6ce61d","copySettings(address,address)":"455ab8a0","deposit()":"d0e30db0","executeTrade(string,bool,uint256,uint256,uint256)":"ad428a37","feeRecipient()":"46904840","getRegisteredTraders()":"c85a8ea2","getTraderStats(address)":"c02495c3","getUserOpenPositions(address)":"4441aacb","getUserPositions(address)":"2a6bc2dd","nextPositionId()":"899346c7","owner()":"8da5cb5b","pause()":"8456cb59","paused()":"5c975abb","platformFeeRate()":"eeca08f0","positions(uint256)":"99fbab88","registerTrader(uint256,uint256)":"6b3446d6","registeredTraders(uint256)":"1ae078d5","renounceOwnership()":"715018a6","setCopySettings(address,uint256,uint256,uint256,uint256,uint256)":"4cf3ed63","stopCopying(address)":"1b25fa15","traders(address)":"92a88fa2","transferOwnership(address)":"f2fde38b","unpause()":"3f4ba83a","updatePlatformFeeRate(uint256)":"ae3b7f06","updateTraderSettings(uint256,uint256)":"7860fa21","userBalances(address)":"26224c64","userPositions(address,uint256)":"5e1b4d99","verifyTrader(address)":"50b95634","withdraw(uint256)":"2e1a7d4d"}}}}}