{
  "_format": "hh-sol-artifact-1",
  "contractName": "CopyTrading",
  "sourceName": "contracts/CopyTrading.sol",
  "abi": [
    {
      "inputs": [
        {
          "internalType": "address",
          "name": "_feeRecipient",
          "type": "address"
        }
      ],
      "stateMutability": "nonpayable",
      "type": "constructor"
    },
    {
      "inputs": [],
      "name": "EnforcedPause",
      "type": "error"
    },
    {
      "inputs": [],
      "name": "ExpectedPause",
      "type": "error"
    },
    {
      "inputs": [
        {
          "internalType": "address",
          "name": "owner",
          "type": "address"
        }
      ],
      "name": "OwnableInvalidOwner",
      "type": "error"
    },
    {
      "inputs": [
        {
          "internalType": "address",
          "name": "account",
          "type": "address"
        }
      ],
      "name": "OwnableUnauthorizedAccount",
      "type": "error"
    },
    {
      "inputs": [],
      "name": "ReentrancyGuardReentrantCall",
      "type": "error"
    },
    {
      "anonymous": false,
      "inputs": [
        {
          "indexed": true,
          "internalType": "address",
          "name": "follower",
          "type": "address"
        },
        {
          "indexed": true,
          "internalType": "address",
          "name": "trader",
          "type": "address"
        },
        {
          "indexed": false,
          "internalType": "uint256",
          "name": "allocation",
          "type": "uint256"
        }
      ],
      "name": "CopySettingsUpdated",
      "type": "event"
    },
    {
      "anonymous": false,
      "inputs": [
        {
          "indexed": true,
          "internalType": "address",
          "name": "trader",
          "type": "address"
        },
        {
          "indexed": true,
          "internalType": "address",
          "name": "follower",
          "type": "address"
        },
        {
          "indexed": false,
          "internalType": "uint256",
          "name": "amount",
          "type": "uint256"
        }
      ],
      "name": "FeesCollected",
      "type": "event"
    },
    {
      "anonymous": false,
      "inputs": [
        {
          "indexed": true,
          "internalType": "address",
          "name": "user",
          "type": "address"
        },
        {
          "indexed": false,
          "internalType": "uint256",
          "name": "amount",
          "type": "uint256"
        }
      ],
      "name": "FundsDeposited",
      "type": "event"
    },
    {
      "anonymous": false,
      "inputs": [
        {
          "indexed": true,
          "internalType": "address",
          "name": "user",
          "type": "address"
        },
        {
          "indexed": false,
          "internalType": "uint256",
          "name": "amount",
          "type": "uint256"
        }
      ],
      "name": "FundsWithdrawn",
      "type": "event"
    },
    {
      "anonymous": false,
      "inputs": [
        {
          "indexed": true,
          "internalType": "address",
          "name": "previousOwner",
          "type": "address"
        },
        {
          "indexed": true,
          "internalType": "address",
          "name": "newOwner",
          "type": "address"
        }
      ],
      "name": "OwnershipTransferred",
      "type": "event"
    },
    {
      "anonymous": false,
      "inputs": [
        {
          "indexed": false,
          "internalType": "address",
          "name": "account",
          "type": "address"
        }
      ],
      "name": "Paused",
      "type": "event"
    },
    {
      "anonymous": false,
      "inputs": [
        {
          "indexed": true,
          "internalType": "uint256",
          "name": "positionId",
          "type": "uint256"
        },
        {
          "indexed": false,
          "internalType": "int256",
          "name": "pnl",
          "type": "int256"
        },
        {
          "indexed": false,
          "internalType": "uint256",
          "name": "closedPrice",
          "type": "uint256"
        }
      ],
      "name": "PositionClosed",
      "type": "event"
    },
    {
      "anonymous": false,
      "inputs": [
        {
          "indexed": true,
          "internalType": "uint256",
          "name": "positionId",
          "type": "uint256"
        },
        {
          "indexed": true,
          "internalType": "address",
          "name": "trader",
          "type": "address"
        },
        {
          "indexed": true,
          "internalType": "address",
          "name": "follower",
          "type": "address"
        },
        {
          "indexed": false,
          "internalType": "string",
          "name": "symbol",
          "type": "string"
        },
        {
          "indexed": false,
          "internalType": "bool",
          "name": "isLong",
          "type": "bool"
        },
        {
          "indexed": false,
          "internalType": "uint256",
          "name": "size",
          "type": "uint256"
        },
        {
          "indexed": false,
          "internalType": "uint256",
          "name": "price",
          "type": "uint256"
        }
      ],
      "name": "PositionOpened",
      "type": "event"
    },
    {
      "anonymous": false,
      "inputs": [
        {
          "indexed": true,
          "internalType": "address",
          "name": "trader",
          "type": "address"
        },
        {
          "indexed": false,
          "internalType": "string",
          "name": "symbol",
          "type": "string"
        },
        {
          "indexed": false,
          "internalType": "bool",
          "name": "isLong",
          "type": "bool"
        },
        {
          "indexed": false,
          "internalType": "uint256",
          "name": "size",
          "type": "uint256"
        },
        {
          "indexed": false,
          "internalType": "uint256",
          "name": "price",
          "type": "uint256"
        }
      ],
      "name": "TradeExecuted",
      "type": "event"
    },
    {
      "anonymous": false,
      "inputs": [
        {
          "indexed": true,
          "internalType": "address",
          "name": "trader",
          "type": "address"
        },
        {
          "indexed": false,
          "internalType": "uint256",
          "name": "feeRate",
          "type": "uint256"
        },
        {
          "indexed": false,
          "internalType": "uint256",
          "name": "maxCopyAmount",
          "type": "uint256"
        }
      ],
      "name": "TraderRegistered",
      "type": "event"
    },
    {
      "anonymous": false,
      "inputs": [
        {
          "indexed": true,
          "internalType": "address",
          "name": "trader",
          "type": "address"
        },
        {
          "indexed": false,
          "internalType": "uint256",
          "name": "feeRate",
          "type": "uint256"
        },
        {
          "indexed": false,
          "internalType": "uint256",
          "name": "maxCopyAmount",
          "type": "uint256"
        }
      ],
      "name": "TraderUpdated",
      "type": "event"
    },
    {
      "anonymous": false,
      "inputs": [
        {
          "indexed": true,
          "internalType": "address",
          "name": "trader",
          "type": "address"
        }
      ],
      "name": "TraderVerified",
      "type": "event"
    },
    {
      "anonymous": false,
      "inputs": [
        {
          "indexed": false,
          "internalType": "address",
          "name": "account",
          "type": "address"
        }
      ],
      "name": "Unpaused",
      "type": "event"
    },
    {
      "inputs": [],
      "name": "MAX_ALLOCATION",
      "outputs": [
        {
          "internalType": "uint256",
          "name": "",
          "type": "uint256"
        }
      ],
      "stateMutability": "view",
      "type": "function"
    },
    {
      "inputs": [],
      "name": "MAX_LEVERAGE",
      "outputs": [
        {
          "internalType": "uint256",
          "name": "",
          "type": "uint256"
        }
      ],
      "stateMutability": "view",
      "type": "function"
    },
    {
      "inputs": [
        {
          "internalType": "address",
          "name": "_copier",
          "type": "address"
        }
      ],
      "name": "blockCopier",
      "outputs": [],
      "stateMutability": "nonpayable",
      "type": "function"
    },
    {
      "inputs": [
        {
          "internalType": "uint256",
          "name": "_positionId",
          "type": "uint256"
        },
        {
          "internalType": "uint256",
          "name": "_exitPrice",
          "type": "uint256"
        }
      ],
      "name": "closePosition",
      "outputs": [],
      "stateMutability": "nonpayable",
      "type": "function"
    },
    {
      "inputs": [
        {
          "internalType": "address",
          "name": "",
          "type": "address"
        },
        {
          "internalType": "address",
          "name": "",
          "type": "address"
        }
      ],
      "name": "copySettings",
      "outputs": [
        {
          "internalType": "address",
          "name": "trader",
          "type": "address"
        },
        {
          "internalType": "uint256",
          "name": "allocation",
          "type": "uint256"
        },
        {
          "internalType": "uint256",
          "name": "maxPositionSize",
          "type": "uint256"
        },
        {
          "internalType": "uint256",
          "name": "stopLoss",
          "type": "uint256"
        },
        {
          "internalType": "uint256",
          "name": "takeProfit",
          "type": "uint256"
        },
        {
          "internalType": "bool",
          "name": "isActive",
          "type": "bool"
        },
        {
          "internalType": "uint256",
          "name": "riskMultiplier",
          "type": "uint256"
        }
      ],
      "stateMutability": "view",
      "type": "function"
    },
    {
      "inputs": [],
      "name": "deposit",
      "outputs": [],
      "stateMutability": "payable",
      "type": "function"
    },
    {
      "inputs": [
        {
          "internalType": "string",
          "name": "_symbol",
          "type": "string"
        },
        {
          "internalType": "bool",
          "name": "_isLong",
          "type": "bool"
        },
        {
          "internalType": "uint256",
          "name": "_size",
          "type": "uint256"
        },
        {
          "internalType": "uint256",
          "name": "_price",
          "type": "uint256"
        },
        {
          "internalType": "uint256",
          "name": "_leverage",
          "type": "uint256"
        }
      ],
      "name": "executeTrade",
      "outputs": [],
      "stateMutability": "nonpayable",
      "type": "function"
    },
    {
      "inputs": [],
      "name": "feeRecipient",
      "outputs": [
        {
          "internalType": "address",
          "name": "",
          "type": "address"
        }
      ],
      "stateMutability": "view",
      "type": "function"
    },
    {
      "inputs": [],
      "name": "getRegisteredTraders",
      "outputs": [
        {
          "internalType": "address[]",
          "name": "",
          "type": "address[]"
        }
      ],
      "stateMutability": "view",
      "type": "function"
    },
    {
      "inputs": [
        {
          "internalType": "address",
          "name": "_trader",
          "type": "address"
        }
      ],
      "name": "getTraderStats",
      "outputs": [
        {
          "internalType": "uint256",
          "name": "feeRate",
          "type": "uint256"
        },
        {
          "internalType": "uint256",
          "name": "totalFollowers",
          "type": "uint256"
        },
        {
          "internalType": "uint256",
          "name": "totalVolume",
          "type": "uint256"
        },
        {
          "internalType": "int256",
          "name": "totalPnL",
          "type": "int256"
        },
        {
          "internalType": "bool",
          "name": "isActive",
          "type": "bool"
        }
      ],
      "stateMutability": "view",
      "type": "function"
    },
    {
      "inputs": [
        {
          "internalType": "address",
          "name": "_user",
          "type": "address"
        }
      ],
      "name": "getUserOpenPositions",
      "outputs": [
        {
          "internalType": "uint256[]",
          "name": "",
          "type": "uint256[]"
        }
      ],
      "stateMutability": "view",
      "type": "function"
    },
    {
      "inputs": [
        {
          "internalType": "address",
          "name": "_user",
          "type": "address"
        }
      ],
      "name": "getUserPositions",
      "outputs": [
        {
          "internalType": "uint256[]",
          "name": "",
          "type": "uint256[]"
        }
      ],
      "stateMutability": "view",
      "type": "function"
    },
    {
      "inputs": [],
      "name": "nextPositionId",
      "outputs": [
        {
          "internalType": "uint256",
          "name": "",
          "type": "uint256"
        }
      ],
      "stateMutability": "view",
      "type": "function"
    },
    {
      "inputs": [],
      "name": "owner",
      "outputs": [
        {
          "internalType": "address",
          "name": "",
          "type": "address"
        }
      ],
      "stateMutability": "view",
      "type": "function"
    },
    {
      "inputs": [],
      "name": "pause",
      "outputs": [],
      "stateMutability": "nonpayable",
      "type": "function"
    },
    {
      "inputs": [],
      "name": "paused",
      "outputs": [
        {
          "internalType": "bool",
          "name": "",
          "type": "bool"
        }
      ],
      "stateMutability": "view",
      "type": "function"
    },
    {
      "inputs": [],
      "name": "platformFeeRate",
      "outputs": [
        {
          "internalType": "uint256",
          "name": "",
          "type": "uint256"
        }
      ],
      "stateMutability": "view",
      "type": "function"
    },
    {
      "inputs": [
        {
          "internalType": "uint256",
          "name": "",
          "type": "uint256"
        }
      ],
      "name": "positions",
      "outputs": [
        {
          "internalType": "uint256",
          "name": "id",
          "type": "uint256"
        },
        {
          "internalType": "address",
          "name": "trader",
          "type": "address"
        },
        {
          "internalType": "address",
          "name": "copier",
          "type": "address"
        },
        {
          "internalType": "string",
          "name": "symbol",
          "type": "string"
        },
        {
          "internalType": "bool",
          "name": "isLong",
          "type": "bool"
        },
        {
          "internalType": "uint256",
          "name": "size",
          "type": "uint256"
        },
        {
          "internalType": "uint256",
          "name": "entryPrice",
          "type": "uint256"
        },
        {
          "internalType": "uint256",
          "name": "leverage",
          "type": "uint256"
        },
        {
          "internalType": "uint256",
          "name": "timestamp",
          "type": "uint256"
        },
        {
          "internalType": "bool",
          "name": "isOpen",
          "type": "bool"
        },
        {
          "internalType": "uint256",
          "name": "exitPrice",
          "type": "uint256"
        },
        {
          "internalType": "int256",
          "name": "pnl",
          "type": "int256"
        }
      ],
      "stateMutability": "view",
      "type": "function"
    },
    {
      "inputs": [
        {
          "internalType": "uint256",
          "name": "_feeRate",
          "type": "uint256"
        },
        {
          "internalType": "uint256",
          "name": "_maxCopyAmount",
          "type": "uint256"
        }
      ],
      "name": "registerTrader",
      "outputs": [],
      "stateMutability": "nonpayable",
      "type": "function"
    },
    {
      "inputs": [
        {
          "internalType": "uint256",
          "name": "",
          "type": "uint256"
        }
      ],
      "name": "registeredTraders",
      "outputs": [
        {
          "internalType": "address",
          "name": "",
          "type": "address"
        }
      ],
      "stateMutability": "view",
      "type": "function"
    },
    {
      "inputs": [],
      "name": "renounceOwnership",
      "outputs": [],
      "stateMutability": "nonpayable",
      "type": "function"
    },
    {
      "inputs": [
        {
          "internalType": "address",
          "name": "_trader",
          "type": "address"
        },
        {
          "internalType": "uint256",
          "name": "_allocation",
          "type": "uint256"
        },
        {
          "internalType": "uint256",
          "name": "_maxPositionSize",
          "type": "uint256"
        },
        {
          "internalType": "uint256",
          "name": "_stopLoss",
          "type": "uint256"
        },
        {
          "internalType": "uint256",
          "name": "_takeProfit",
          "type": "uint256"
        },
        {
          "internalType": "uint256",
          "name": "_riskMultiplier",
          "type": "uint256"
        }
      ],
      "name": "setCopySettings",
      "outputs": [],
      "stateMutability": "payable",
      "type": "function"
    },
    {
      "inputs": [
        {
          "internalType": "address",
          "name": "_trader",
          "type": "address"
        }
      ],
      "name": "stopCopying",
      "outputs": [],
      "stateMutability": "nonpayable",
      "type": "function"
    },
    {
      "inputs": [
        {
          "internalType": "address",
          "name": "",
          "type": "address"
        }
      ],
      "name": "traders",
      "outputs": [
        {
          "internalType": "address",
          "name": "trader",
          "type": "address"
        },
        {
          "internalType": "bool",
          "name": "isVerified",
          "type": "bool"
        },
        {
          "internalType": "uint256",
          "name": "totalVolume",
          "type": "uint256"
        },
        {
          "internalType": "uint256",
          "name": "totalTrades",
          "type": "uint256"
        },
        {
          "internalType": "uint256",
          "name": "followers",
          "type": "uint256"
        },
        {
          "internalType": "uint256",
          "name": "maxCopyAmount",
          "type": "uint256"
        },
        {
          "internalType": "uint256",
          "name": "feeRate",
          "type": "uint256"
        }
      ],
      "stateMutability": "view",
      "type": "function"
    },
    {
      "inputs": [
        {
          "internalType": "address",
          "name": "newOwner",
          "type": "address"
        }
      ],
      "name": "transferOwnership",
      "outputs": [],
      "stateMutability": "nonpayable",
      "type": "function"
    },
    {
      "inputs": [],
      "name": "unpause",
      "outputs": [],
      "stateMutability": "nonpayable",
      "type": "function"
    },
    {
      "inputs": [
        {
          "internalType": "uint256",
          "name": "_newFeeRate",
          "type": "uint256"
        }
      ],
      "name": "updatePlatformFeeRate",
      "outputs": [],
      "stateMutability": "nonpayable",
      "type": "function"
    },
    {
      "inputs": [
        {
          "internalType": "uint256",
          "name": "_feeRate",
          "type": "uint256"
        },
        {
          "internalType": "uint256",
          "name": "_maxCopyAmount",
          "type": "uint256"
        }
      ],
      "name": "updateTraderSettings",
      "outputs": [],
      "stateMutability": "nonpayable",
      "type": "function"
    },
    {
      "inputs": [
        {
          "internalType": "address",
          "name": "",
          "type": "address"
        }
      ],
      "name": "userBalances",
      "outputs": [
        {
          "internalType": "uint256",
          "name": "",
          "type": "uint256"
        }
      ],
      "stateMutability": "view",
      "type": "function"
    },
    {
      "inputs": [
        {
          "internalType": "address",
          "name": "",
          "type": "address"
        },
        {
          "internalType": "uint256",
          "name": "",
          "type": "uint256"
        }
      ],
      "name": "userPositions",
      "outputs": [
        {
          "internalType": "uint256",
          "name": "",
          "type": "uint256"
        }
      ],
      "stateMutability": "view",
      "type": "function"
    },
    {
      "inputs": [
        {
          "internalType": "address",
          "name": "_trader",
          "type": "address"
        }
      ],
      "name": "verifyTrader",
      "outputs": [],
      "stateMutability": "nonpayable",
      "type": "function"
    },
    {
      "inputs": [
        {
          "internalType": "uint256",
          "name": "_amount",
          "type": "uint256"
        }
      ],
      "name": "withdraw",
      "outputs": [],
      "stateMutability": "nonpayable",
      "type": "function"
    }
  ],
  "bytecode": "0x6080604052600160075560646008553480156200001b57600080fd5b5060405162002277380380620022778339810160408190526200003e91620000ee565b600160005533806200006a57604051631e4fbdf760e01b81526000600482015260240160405180910390fd5b62000075816200009c565b50600980546001600160a01b0319166001600160a01b039290921691909117905562000120565b600180546001600160a01b038381166001600160a01b0319831681179093556040519116919082907f8be0079c531659141344cd1fd0a4f28419497f9722a3daafe3b4186f6b6457e090600090a35050565b6000602082840312156200010157600080fd5b81516001600160a01b03811681146200011957600080fd5b9392505050565b61214780620001306000396000f3fe6080604052600436106101e35760003560e01c8063715018a611610102578063ad428a3711610095578063c85a8ea211610064578063c85a8ea2146106f5578063d0e30db014610717578063eeca08f01461071f578063f2fde38b1461073557600080fd5b8063ad428a3714610616578063ae3b7f0614610636578063b8f174cf14610656578063c02495c31461067657600080fd5b80638da5cb5b116100d15780638da5cb5b1461050957806392a88fa21461052757806399fbab88146105c85780639b45ec971461060057600080fd5b8063715018a6146104a95780637860fa21146104be5780638456cb59146104de578063899346c7146104f357600080fd5b80634441aacb1161017a57806350b956341161014957806350b956341461041f5780635c975abb1461043f5780635e1b4d99146104695780636b3446d61461048957600080fd5b80634441aacb1461031a578063455ab8a01461033a57806346904840146103ec5780634cf3ed631461040c57600080fd5b80632a6bc2dd116101b65780632a6bc2dd146102985780632d6ce61d146102c55780632e1a7d4d146102e55780633f4ba83a1461030557600080fd5b80631ae078d5146101e85780631b25fa151461022557806326224c6414610247578063298f2ac414610282575b600080fd5b3480156101f457600080fd5b50610208610203366004611bab565b610755565b6040516001600160a01b0390911681526020015b60405180910390f35b34801561023157600080fd5b50610245610240366004611be0565b61077f565b005b34801561025357600080fd5b50610274610262366004611be0565b60066020526000908152604090205481565b60405190815260200161021c565b34801561028e57600080fd5b5061027461138881565b3480156102a457600080fd5b506102b86102b3366004611be0565b61089a565b60405161021c9190611c02565b3480156102d157600080fd5b506102456102e0366004611c46565b610906565b3480156102f157600080fd5b50610245610300366004611bab565b610cb9565b34801561031157600080fd5b50610245610dec565b34801561032657600080fd5b506102b8610335366004611be0565b610dfe565b34801561034657600080fd5b506103ab610355366004611c68565b6003602081815260009384526040808520909152918352912080546001820154600283015493830154600484015460058501546006909501546001600160a01b0390941695929492939192909160ff9091169087565b604080516001600160a01b03909816885260208801969096529486019390935260608501919091526080840152151560a083015260c082015260e00161021c565b3480156103f857600080fd5b50600954610208906001600160a01b031681565b61024561041a366004611c9b565b610fc0565b34801561042b57600080fd5b5061024561043a366004611be0565b6111da565b34801561044b57600080fd5b50600154600160a01b900460ff16604051901515815260200161021c565b34801561047557600080fd5b50610274610484366004611ce5565b611293565b34801561049557600080fd5b506102456104a4366004611c46565b6112c4565b3480156104b557600080fd5b50610245611440565b3480156104ca57600080fd5b506102456104d9366004611c46565b611452565b3480156104ea57600080fd5b5061024561156d565b3480156104ff57600080fd5b5061027460075481565b34801561051557600080fd5b506001546001600160a01b0316610208565b34801561053357600080fd5b50610589610542366004611be0565b60026020819052600091825260409091208054600182015492820154600383015460048401546005909401546001600160a01b03841695600160a01b90940460ff16949087565b604080516001600160a01b0390981688529515156020880152948601939093526060850191909152608084015260a083015260c082015260e00161021c565b3480156105d457600080fd5b506105e86105e3366004611bab565b61157d565b60405161021c9c9b9a99989796959493929190611d55565b34801561060c57600080fd5b5061027461271081565b34801561062257600080fd5b50610245610631366004611df6565b611677565b34801561064257600080fd5b50610245610651366004611bab565b61181b565b34801561066257600080fd5b50610245610671366004611be0565b61184a565b34801561068257600080fd5b506106cb610691366004611be0565b6001600160a01b0316600090815260026020526040812060058101546003820154600183015492549194909391600160a01b900460ff1690565b6040805195865260208601949094529284019190915260608301521515608082015260a00161021c565b34801561070157600080fd5b5061070a6118d4565b60405161021c9190611ed2565b610245611936565b34801561072b57600080fd5b5061027460085481565b34801561074157600080fd5b50610245610750366004611be0565b6119da565b600a818154811061076557600080fd5b6000918252602090912001546001600160a01b0316905081565b3360009081526003602090815260408083206001600160a01b03851684529091529020600581015460ff166107fb5760405162461bcd60e51b815260206004820152601760248201527f4e6f7420636f7079696e6720746869732074726164657200000000000000000060448201526064015b60405180910390fd5b60058101805460ff191690556001600160a01b03821660009081526002602052604090206003015415610855576001600160a01b038216600090815260026020526040812060030180549161084f83611f29565b91905055505b604051600081526001600160a01b0383169033907fd5f345449272693a6ea89c82dbe581351d745592c5bb577f7667ccd95172eb889060200160405180910390a35050565b6001600160a01b0381166000908152600460209081526040918290208054835181840281018401909452808452606093928301828280156108fa57602002820191906000526020600020905b8154815260200190600101908083116108e6575b50505050509050919050565b600082815260056020526040902060028101546001600160a01b031633148061093b575060018101546001600160a01b031633145b6109785760405162461bcd60e51b815260206004820152600e60248201526d139bdd08185d5d1a1bdc9a5e995960921b60448201526064016107f2565b600981015460ff166109cc5760405162461bcd60e51b815260206004820152601760248201527f506f736974696f6e20616c726561647920636c6f73656400000000000000000060448201526064016107f2565b60008211610a115760405162461bcd60e51b8152602060048201526012602482015271496e76616c6964206578697420707269636560701b60448201526064016107f2565b60098101805460ff19169055600a81018290556006810154600090610a369084611f40565b600483015490915060ff16610a5157610a4e81611f67565b90505b60068201546005830154610a659083611f83565b610a6f9190611fcf565b600b830181905560001215610bbc57600b82015460028301546001600160a01b031660009081526006602052604081208054909190610aaf908490611ffd565b909155505060018201546001600160a01b0316600090815260026020526040812060050154600b84015461271091610ae691612010565b610af09190612027565b9050600061271060085485600b0154610b099190612010565b610b139190612027565b60018501546001600160a01b0316600090815260066020526040812080549293508492909190610b44908490611ffd565b90915550506009546001600160a01b031660009081526006602052604081208054839290610b73908490611ffd565b90915550610b8390508183611ffd565b60028501546001600160a01b031660009081526006602052604081208054909190610baf90849061203b565b90915550610c7292505050565b600082600b01541215610c7257600082600b0154610bd990611f67565b60028401546001600160a01b0316600090815260066020526040902054909150811115610c3f5760405162461bcd60e51b8152602060048201526014602482015273496e73756666696369656e742062616c616e636560601b60448201526064016107f2565b60028301546001600160a01b031660009081526006602052604081208054839290610c6b90849061203b565b9091555050505b600b820154604080519182526020820185905285917f188c5a1621fdf38505775be572d11aceb0b1e5f518d210077c6f1ca91399d29d91015b60405180910390a250505050565b610cc1611a15565b60008111610d025760405162461bcd60e51b815260206004820152600e60248201526d125b9d985b1a5908185b5bdd5b9d60921b60448201526064016107f2565b33600090815260066020526040902054811115610d585760405162461bcd60e51b8152602060048201526014602482015273496e73756666696369656e742062616c616e636560601b60448201526064016107f2565b3360009081526006602052604081208054839290610d7790849061203b565b9091555050604051339082156108fc029083906000818181858888f19350505050158015610da9573d6000803e3d6000fd5b5060405181815233907feaff4b37086828766ad3268786972c0cd24259d4c87a80f9d3963a3c3d999b0d9060200160405180910390a2610de96001600055565b50565b610df4611a3f565b610dfc611a6c565b565b6001600160a01b0381166000908152600460209081526040808320805482518185028101850190935280835260609493830182828015610e5d57602002820191906000526020600020905b815481526020019060010190808311610e49575b505050505090506000805b8251811015610ecd5760056000848381518110610e8757610e8761204e565b60209081029190910181015182528101919091526040016000206009015460ff1615610ebb5781610eb781612064565b9250505b80610ec581612064565b915050610e68565b5060008167ffffffffffffffff811115610ee957610ee9611dd0565b604051908082528060200260200182016040528015610f12578160200160208202803683370190505b5090506000805b8451811015610fb55760056000868381518110610f3857610f3861204e565b60209081029190910181015182528101919091526040016000206009015460ff1615610fa357848181518110610f7057610f7061204e565b6020026020010151838381518110610f8a57610f8a61204e565b602090810291909101015281610f9f81612064565b9250505b80610fad81612064565b915050610f19565b509095945050505050565b6001600160a01b038616600090815260026020526040902054600160a01b900460ff166110255760405162461bcd60e51b8152602060048201526013602482015272151c9859195c881b9bdd081d995c9a599a5959606a1b60448201526064016107f2565b61138885111561106d5760405162461bcd60e51b8152602060048201526013602482015272082d8d8dec6c2e8d2dedc40e8dede40d0d2ced606b1b60448201526064016107f2565b614e208111156110bf5760405162461bcd60e51b815260206004820152601860248201527f5269736b206d756c7469706c69657220746f6f2068696768000000000000000060448201526064016107f2565b6001600160a01b038616600090815260026020908152604080832033845260060190915290205460ff161561112a5760405162461bcd60e51b8152602060048201526011602482015270213637b1b5b2b210313c903a3930b232b960791b60448201526064016107f2565b3360009081526003602081815260408084206001600160a01b038b16808652925290922080546001600160a01b0319169092178255600180830188905560028301879055908201859055600482018490556006820183905560058201805460ff191690911790556040518681526001600160a01b0388169033907fd5f345449272693a6ea89c82dbe581351d745592c5bb577f7667ccd95172eb889060200160405180910390a350505050505050565b6111e2611a3f565b6001600160a01b03818116600090815260026020526040902054166112415760405162461bcd60e51b8152602060048201526015602482015274151c9859195c881b9bdd081c9959da5cdd195c9959605a1b60448201526064016107f2565b6001600160a01b038116600081815260026020526040808220805460ff60a01b1916600160a01b179055517f1644dd3d2c8e5043d32e4908443aaf64bb66fc896c3736e3587058c2e2f48d899190a250565b600460205281600052604060002081815481106112af57600080fd5b90600052602060002001600091509150505481565b6103e88211156112e65760405162461bcd60e51b81526004016107f29061207d565b600081116113305760405162461bcd60e51b8152602060048201526017602482015276125b9d985b1a59081b585e0818dbdc1e48185b5bdd5b9d604a1b60448201526064016107f2565b33600081815260026020526040812080546001600160a01b031916909217825560058201849055600482018390556001905b600a548110156113be57336001600160a01b0316600a82815481106113895761138961204e565b6000918252602090912001546001600160a01b0316036113ac57600091506113be565b806113b681612064565b915050611362565b50801561140857600a80546001810182556000919091527fc65a7bb8d6351c1cf70c95a316cc6a92839c986682d98bc35f958f4883f9d2a80180546001600160a01b031916331790555b604080518581526020810185905233917fb21da2449cb57db93b012a0982d035eec835108a6107b2f930e794385d5d2f209101610cab565b611448611a3f565b610dfc6000611ac1565b336000818152600260205260409020546001600160a01b0316146114a75760405162461bcd60e51b815260206004820152600c60248201526b2737ba1030903a3930b232b960a11b60448201526064016107f2565b6103e88211156114c95760405162461bcd60e51b81526004016107f29061207d565b600081116115135760405162461bcd60e51b8152602060048201526017602482015276125b9d985b1a59081b585e0818dbdc1e48185b5bdd5b9d604a1b60448201526064016107f2565b336000818152600260209081526040918290206005810186905560040184905581518581529081018490527f3943d65e7410abc027f3c82f3da1779a4f256768c22389669c212406c8a8c267910160405180910390a25050565b611575611a3f565b610dfc611b13565b600560205260009081526040902080546001820154600283015460038401805493946001600160a01b039384169493909216926115b9906120a8565b80601f01602080910402602001604051908101604052809291908181526020018280546115e5906120a8565b80156116325780601f1061160757610100808354040283529160200191611632565b820191906000526020600020905b81548152906001019060200180831161161557829003601f168201915b505050600484015460058501546006860154600787015460088801546009890154600a8a0154600b909a0154989960ff9687169995985093965091949093911691908c565b61167f611b56565b33600090815260026020526040902054600160a01b900460ff166116db5760405162461bcd60e51b81526020600482015260136024820152722737ba103b32b934b334b2b2103a3930b232b960691b60448201526064016107f2565b6127108111156117215760405162461bcd60e51b8152602060048201526011602482015270098caeccae4c2ceca40e8dede40d0d2ced607b1b60448201526064016107f2565b6000831180156117315750600082115b6117725760405162461bcd60e51b8152602060048201526012602482015271496e76616c696420706172616d657465727360701b60448201526064016107f2565b33600090815260026020819052604082200180549161179083612064565b909155506117a090508284612010565b33600090815260026020526040812060010180549091906117c2908490611ffd565b909155506117cd9050565b336001600160a01b03167faa50eb31cc07432648d2950c825abb08a267324fab2d0e2ea28b6d4c410915728686868660405161180c94939291906120e2565b60405180910390a25050505050565b611823611a3f565b6101f48111156118455760405162461bcd60e51b81526004016107f29061207d565b600855565b336000818152600260205260409020546001600160a01b03161461189f5760405162461bcd60e51b815260206004820152600c60248201526b2737ba1030903a3930b232b960a11b60448201526064016107f2565b3360009081526002602090815260408083206001600160a01b039490941683526006909301905220805460ff19166001179055565b6060600a80548060200260200160405190810160405280929190818152602001828054801561192c57602002820191906000526020600020905b81546001600160a01b0316815260019091019060200180831161190e575b5050505050905090565b6000341161197f5760405162461bcd60e51b8152602060048201526016602482015275125b9d985b1a590819195c1bdcda5d08185b5bdd5b9d60521b60448201526064016107f2565b336000908152600660205260408120805434929061199e908490611ffd565b909155505060405134815233907f543ba50a5eec5e6178218e364b1d0f396157b3c8fa278522c2cb7fd99407d4749060200160405180910390a2565b6119e2611a3f565b6001600160a01b038116611a0c57604051631e4fbdf760e01b8152600060048201526024016107f2565b610de981611ac1565b600260005403611a3857604051633ee5aeb560e01b815260040160405180910390fd5b6002600055565b6001546001600160a01b03163314610dfc5760405163118cdaa760e01b81523360048201526024016107f2565b611a74611b81565b6001805460ff60a01b191690557f5db9ee0a495bf2e6ff9c91a7834c1ba4fdd244a5e8aa4e537bd38aeae4b073aa335b6040516001600160a01b03909116815260200160405180910390a1565b600180546001600160a01b038381166001600160a01b0319831681179093556040519116919082907f8be0079c531659141344cd1fd0a4f28419497f9722a3daafe3b4186f6b6457e090600090a35050565b611b1b611b56565b6001805460ff60a01b1916600160a01b1790557f62e78cea01bee320cd4e420270b5ea74000d11b0c9f74754ebdbfc544b05a258611aa43390565b600154600160a01b900460ff1615610dfc5760405163d93c066560e01b815260040160405180910390fd5b600154600160a01b900460ff16610dfc57604051638dfc202b60e01b815260040160405180910390fd5b600060208284031215611bbd57600080fd5b5035919050565b80356001600160a01b0381168114611bdb57600080fd5b919050565b600060208284031215611bf257600080fd5b611bfb82611bc4565b9392505050565b6020808252825182820181905260009190848201906040850190845b81811015611c3a57835183529284019291840191600101611c1e565b50909695505050505050565b60008060408385031215611c5957600080fd5b50508035926020909101359150565b60008060408385031215611c7b57600080fd5b611c8483611bc4565b9150611c9260208401611bc4565b90509250929050565b60008060008060008060c08789031215611cb457600080fd5b611cbd87611bc4565b9860208801359850604088013597606081013597506080810135965060a00135945092505050565b60008060408385031215611cf857600080fd5b611d0183611bc4565b946020939093013593505050565b6000815180845260005b81811015611d3557602081850181015186830182015201611d19565b506000602082860101526020601f19601f83011685010191505092915050565b8c81526001600160a01b038c811660208301528b16604082015261018060608201819052600090611d888382018d611d0f565b9a15156080840152505060a081019790975260c087019590955260e0860193909352610100850191909152151561012084015261014083015261016090910152949350505050565b634e487b7160e01b600052604160045260246000fd5b80358015158114611bdb57600080fd5b600080600080600060a08688031215611e0e57600080fd5b853567ffffffffffffffff80821115611e2657600080fd5b818801915088601f830112611e3a57600080fd5b813581811115611e4c57611e4c611dd0565b604051601f8201601f19908116603f01168101908382118183101715611e7457611e74611dd0565b816040528281528b6020848701011115611e8d57600080fd5b826020860160208301376000602084830101528099505050505050611eb460208701611de6565b94979496505050506040830135926060810135926080909101359150565b6020808252825182820181905260009190848201906040850190845b81811015611c3a5783516001600160a01b031683529284019291840191600101611eee565b634e487b7160e01b600052601160045260246000fd5b600081611f3857611f38611f13565b506000190190565b8181036000831280158383131683831282161715611f6057611f60611f13565b5092915050565b6000600160ff1b8201611f7c57611f7c611f13565b5060000390565b80820260008212600160ff1b84141615611f9f57611f9f611f13565b8181058314821517611fb357611fb3611f13565b92915050565b634e487b7160e01b600052601260045260246000fd5b600082611fde57611fde611fb9565b600160ff1b821460001984141615611ff857611ff8611f13565b500590565b80820180821115611fb357611fb3611f13565b8082028115828204841417611fb357611fb3611f13565b60008261203657612036611fb9565b500490565b81810381811115611fb357611fb3611f13565b634e487b7160e01b600052603260045260246000fd5b60006001820161207657612076611f13565b5060010190565b60208082526011908201527008ccaca40e4c2e8ca40e8dede40d0d2ced607b1b604082015260600190565b600181811c908216806120bc57607f821691505b6020821081036120dc57634e487b7160e01b600052602260045260246000fd5b50919050565b6080815260006120f56080830187611d0f565b941515602083015250604081019290925260609091015291905056fea26469706673582212203fc1ac14b0686e44ae833db04e4ff4fe0332a646471dedc7cfeae37b8ac6511664736f6c63430008140033",
  "linkReferences": {},
  "deployedLinkReferences": {}
}