{
  "_format": "hh-sol-artifact-1",
  "contractName": "CopyTrading",
  "sourceName": "contracts/CopyTrading.sol",
  "abi": [
    {
      "inputs": [
        {
          "internalType": "address",
          "name": "_feeRecipient",
          "type": "address"
        }
      ],
      "stateMutability": "nonpayable",
      "type": "constructor"
    },
    {
      "inputs": [],
      "name": "EnforcedPause",
      "type": "error"
    },
    {
      "inputs": [],
      "name": "ExpectedPause",
      "type": "error"
    },
    {
      "inputs": [
        {
          "internalType": "address",
          "name": "owner",
          "type": "address"
        }
      ],
      "name": "OwnableInvalidOwner",
      "type": "error"
    },
    {
      "inputs": [
        {
          "internalType": "address",
          "name": "account",
          "type": "address"
        }
      ],
      "name": "OwnableUnauthorizedAccount",
      "type": "error"
    },
    {
      "inputs": [],
      "name": "ReentrancyGuardReentrantCall",
      "type": "error"
    },
    {
      "anonymous": false,
      "inputs": [
        {
          "indexed": true,
          "internalType": "address",
          "name": "follower",
          "type": "address"
        },
        {
          "indexed": true,
          "internalType": "address",
          "name": "trader",
          "type": "address"
        },
        {
          "indexed": false,
          "internalType": "uint256",
          "name": "allocation",
          "type": "uint256"
        }
      ],
      "name": "CopySettingsUpdated",
      "type": "event"
    },
    {
      "anonymous": false,
      "inputs": [
        {
          "indexed": true,
          "internalType": "address",
          "name": "trader",
          "type": "address"
        },
        {
          "indexed": true,
          "internalType": "address",
          "name": "follower",
          "type": "address"
        },
        {
          "indexed": false,
          "internalType": "uint256",
          "name": "amount",
          "type": "uint256"
        }
      ],
      "name": "FeesCollected",
      "type": "event"
    },
    {
      "anonymous": false,
      "inputs": [
        {
          "indexed": true,
          "internalType": "address",
          "name": "user",
          "type": "address"
        },
        {
          "indexed": false,
          "internalType": "uint256",
          "name": "amount",
          "type": "uint256"
        }
      ],
      "name": "FundsDeposited",
      "type": "event"
    },
    {
      "anonymous": false,
      "inputs": [
        {
          "indexed": true,
          "internalType": "address",
          "name": "user",
          "type": "address"
        },
        {
          "indexed": false,
          "internalType": "uint256",
          "name": "amount",
          "type": "uint256"
        }
      ],
      "name": "FundsWithdrawn",
      "type": "event"
    },
    {
      "anonymous": false,
      "inputs": [
        {
          "indexed": true,
          "internalType": "address",
          "name": "previousOwner",
          "type": "address"
        },
        {
          "indexed": true,
          "internalType": "address",
          "name": "newOwner",
          "type": "address"
        }
      ],
      "name": "OwnershipTransferred",
      "type": "event"
    },
    {
      "anonymous": false,
      "inputs": [
        {
          "indexed": false,
          "internalType": "address",
          "name": "account",
          "type": "address"
        }
      ],
      "name": "Paused",
      "type": "event"
    },
    {
      "anonymous": false,
      "inputs": [
        {
          "indexed": true,
          "internalType": "uint256",
          "name": "positionId",
          "type": "uint256"
        },
        {
          "indexed": false,
          "internalType": "int256",
          "name": "pnl",
          "type": "int256"
        },
        {
          "indexed": false,
          "internalType": "uint256",
          "name": "closedPrice",
          "type": "uint256"
        }
      ],
      "name": "PositionClosed",
      "type": "event"
    },
    {
      "anonymous": false,
      "inputs": [
        {
          "indexed": true,
          "internalType": "uint256",
          "name": "positionId",
          "type": "uint256"
        },
        {
          "indexed": true,
          "internalType": "address",
          "name": "trader",
          "type": "address"
        },
        {
          "indexed": true,
          "internalType": "address",
          "name": "follower",
          "type": "address"
        },
        {
          "indexed": false,
          "internalType": "string",
          "name": "symbol",
          "type": "string"
        },
        {
          "indexed": false,
          "internalType": "bool",
          "name": "isLong",
          "type": "bool"
        },
        {
          "indexed": false,
          "internalType": "uint256",
          "name": "size",
          "type": "uint256"
        },
        {
          "indexed": false,
          "internalType": "uint256",
          "name": "price",
          "type": "uint256"
        }
      ],
      "name": "PositionOpened",
      "type": "event"
    },
    {
      "anonymous": false,
      "inputs": [
        {
          "indexed": true,
          "internalType": "address",
          "name": "trader",
          "type": "address"
        },
        {
          "indexed": false,
          "internalType": "string",
          "name": "symbol",
          "type": "string"
        },
        {
          "indexed": false,
          "internalType": "bool",
          "name": "isLong",
          "type": "bool"
        },
        {
          "indexed": false,
          "internalType": "uint256",
          "name": "size",
          "type": "uint256"
        },
        {
          "indexed": false,
          "internalType": "uint256",
          "name": "price",
          "type": "uint256"
        }
      ],
      "name": "TradeExecuted",
      "type": "event"
    },
    {
      "anonymous": false,
      "inputs": [
        {
          "indexed": true,
          "internalType": "address",
          "name": "trader",
          "type": "address"
        },
        {
          "indexed": false,
          "internalType": "uint256",
          "name": "feeRate",
          "type": "uint256"
        },
        {
          "indexed": false,
          "internalType": "uint256",
          "name": "maxCopyAmount",
          "type": "uint256"
        }
      ],
      "name": "TraderRegistered",
      "type": "event"
    },
    {
      "anonymous": false,
      "inputs": [
        {
          "indexed": true,
          "internalType": "address",
          "name": "trader",
          "type": "address"
        },
        {
          "indexed": false,
          "internalType": "uint256",
          "name": "feeRate",
          "type": "uint256"
        },
        {
          "indexed": false,
          "internalType": "uint256",
          "name": "maxCopyAmount",
          "type": "uint256"
        }
      ],
      "name": "TraderUpdated",
      "type": "event"
    },
    {
      "anonymous": false,
      "inputs": [
        {
          "indexed": true,
          "internalType": "address",
          "name": "trader",
          "type": "address"
        }
      ],
      "name": "TraderVerified",
      "type": "event"
    },
    {
      "anonymous": false,
      "inputs": [
        {
          "indexed": false,
          "internalType": "address",
          "name": "account",
          "type": "address"
        }
      ],
      "name": "Unpaused",
      "type": "event"
    },
    {
      "inputs": [],
      "name": "MAX_ALLOCATION",
      "outputs": [
        {
          "internalType": "uint256",
          "name": "",
          "type": "uint256"
        }
      ],
      "stateMutability": "view",
      "type": "function"
    },
    {
      "inputs": [],
      "name": "MAX_LEVERAGE",
      "outputs": [
        {
          "internalType": "uint256",
          "name": "",
          "type": "uint256"
        }
      ],
      "stateMutability": "view",
      "type": "function"
    },
    {
      "inputs": [
        {
          "internalType": "address",
          "name": "_copier",
          "type": "address"
        }
      ],
      "name": "blockCopier",
      "outputs": [],
      "stateMutability": "nonpayable",
      "type": "function"
    },
    {
      "inputs": [
        {
          "internalType": "uint256",
          "name": "_positionId",
          "type": "uint256"
        },
        {
          "internalType": "uint256",
          "name": "_exitPrice",
          "type": "uint256"
        }
      ],
      "name": "closePosition",
      "outputs": [],
      "stateMutability": "nonpayable",
      "type": "function"
    },
    {
      "inputs": [
        {
          "internalType": "address",
          "name": "",
          "type": "address"
        },
        {
          "internalType": "address",
          "name": "",
          "type": "address"
        }
      ],
      "name": "copySettings",
      "outputs": [
        {
          "internalType": "address",
          "name": "trader",
          "type": "address"
        },
        {
          "internalType": "uint256",
          "name": "allocation",
          "type": "uint256"
        },
        {
          "internalType": "uint256",
          "name": "maxPositionSize",
          "type": "uint256"
        },
        {
          "internalType": "uint256",
          "name": "stopLoss",
          "type": "uint256"
        },
        {
          "internalType": "uint256",
          "name": "takeProfit",
          "type": "uint256"
        },
        {
          "internalType": "bool",
          "name": "isActive",
          "type": "bool"
        },
        {
          "internalType": "uint256",
          "name": "riskMultiplier",
          "type": "uint256"
        }
      ],
      "stateMutability": "view",
      "type": "function"
    },
    {
      "inputs": [],
      "name": "deposit",
      "outputs": [],
      "stateMutability": "payable",
      "type": "function"
    },
    {
      "inputs": [
        {
          "internalType": "string",
          "name": "_symbol",
          "type": "string"
        },
        {
          "internalType": "bool",
          "name": "_isLong",
          "type": "bool"
        },
        {
          "internalType": "uint256",
          "name": "_size",
          "type": "uint256"
        },
        {
          "internalType": "uint256",
          "name": "_price",
          "type": "uint256"
        },
        {
          "internalType": "uint256",
          "name": "_leverage",
          "type": "uint256"
        }
      ],
      "name": "executeTrade",
      "outputs": [],
      "stateMutability": "nonpayable",
      "type": "function"
    },
    {
      "inputs": [],
      "name": "feeRecipient",
      "outputs": [
        {
          "internalType": "address",
          "name": "",
          "type": "address"
        }
      ],
      "stateMutability": "view",
      "type": "function"
    },
    {
      "inputs": [],
      "name": "getRegisteredTraders",
      "outputs": [
        {
          "internalType": "address[]",
          "name": "",
          "type": "address[]"
        }
      ],
      "stateMutability": "view",
      "type": "function"
    },
    {
      "inputs": [
        {
          "internalType": "address",
          "name": "_trader",
          "type": "address"
        }
      ],
      "name": "getTraderStats",
      "outputs": [
        {
          "internalType": "uint256",
          "name": "feeRate",
          "type": "uint256"
        },
        {
          "internalType": "uint256",
          "name": "totalFollowers",
          "type": "uint256"
        },
        {
          "internalType": "uint256",
          "name": "totalVolume",
          "type": "uint256"
        },
        {
          "internalType": "int256",
          "name": "totalPnL",
          "type": "int256"
        },
        {
          "internalType": "bool",
          "name": "isActive",
          "type": "bool"
        }
      ],
      "stateMutability": "view",
      "type": "function"
    },
    {
      "inputs": [
        {
          "internalType": "address",
          "name": "_user",
          "type": "address"
        }
      ],
      "name": "getUserOpenPositions",
      "outputs": [
        {
          "internalType": "uint256[]",
          "name": "",
          "type": "uint256[]"
        }
      ],
      "stateMutability": "view",
      "type": "function"
    },
    {
      "inputs": [
        {
          "internalType": "address",
          "name": "_user",
          "type": "address"
        }
      ],
      "name": "getUserPositions",
      "outputs": [
        {
          "internalType": "uint256[]",
          "name": "",
          "type": "uint256[]"
        }
      ],
      "stateMutability": "view",
      "type": "function"
    },
    {
      "inputs": [],
      "name": "nextPositionId",
      "outputs": [
        {
          "internalType": "uint256",
          "name": "",
          "type": "uint256"
        }
      ],
      "stateMutability": "view",
      "type": "function"
    },
    {
      "inputs": [],
      "name": "owner",
      "outputs": [
        {
          "internalType": "address",
          "name": "",
          "type": "address"
        }
      ],
      "stateMutability": "view",
      "type": "function"
    },
    {
      "inputs": [],
      "name": "pause",
      "outputs": [],
      "stateMutability": "nonpayable",
      "type": "function"
    },
    {
      "inputs": [],
      "name": "paused",
      "outputs": [
        {
          "internalType": "bool",
          "name": "",
          "type": "bool"
        }
      ],
      "stateMutability": "view",
      "type": "function"
    },
    {
      "inputs": [],
      "name": "platformFeeRate",
      "outputs": [
        {
          "internalType": "uint256",
          "name": "",
          "type": "uint256"
        }
      ],
      "stateMutability": "view",
      "type": "function"
    },
    {
      "inputs": [
        {
          "internalType": "uint256",
          "name": "",
          "type": "uint256"
        }
      ],
      "name": "positions",
      "outputs": [
        {
          "internalType": "uint256",
          "name": "id",
          "type": "uint256"
        },
        {
          "internalType": "address",
          "name": "trader",
          "type": "address"
        },
        {
          "internalType": "address",
          "name": "copier",
          "type": "address"
        },
        {
          "internalType": "string",
          "name": "symbol",
          "type": "string"
        },
        {
          "internalType": "bool",
          "name": "isLong",
          "type": "bool"
        },
        {
          "internalType": "uint256",
          "name": "size",
          "type": "uint256"
        },
        {
          "internalType": "uint256",
          "name": "entryPrice",
          "type": "uint256"
        },
        {
          "internalType": "uint256",
          "name": "leverage",
          "type": "uint256"
        },
        {
          "internalType": "uint256",
          "name": "timestamp",
          "type": "uint256"
        },
        {
          "internalType": "bool",
          "name": "isOpen",
          "type": "bool"
        },
        {
          "internalType": "uint256",
          "name": "exitPrice",
          "type": "uint256"
        },
        {
          "internalType": "int256",
          "name": "pnl",
          "type": "int256"
        }
      ],
      "stateMutability": "view",
      "type": "function"
    },
    {
      "inputs": [
        {
          "internalType": "uint256",
          "name": "_feeRate",
          "type": "uint256"
        },
        {
          "internalType": "uint256",
          "name": "_maxCopyAmount",
          "type": "uint256"
        }
      ],
      "name": "registerTrader",
      "outputs": [],
      "stateMutability": "nonpayable",
      "type": "function"
    },
    {
      "inputs": [
        {
          "internalType": "uint256",
          "name": "",
          "type": "uint256"
        }
      ],
      "name": "registeredTraders",
      "outputs": [
        {
          "internalType": "address",
          "name": "",
          "type": "address"
        }
      ],
      "stateMutability": "view",
      "type": "function"
    },
    {
      "inputs": [],
      "name": "renounceOwnership",
      "outputs": [],
      "stateMutability": "nonpayable",
      "type": "function"
    },
    {
      "inputs": [
        {
          "internalType": "address",
          "name": "_trader",
          "type": "address"
        },
        {
          "internalType": "uint256",
          "name": "_allocation",
          "type": "uint256"
        },
        {
          "internalType": "uint256",
          "name": "_maxPositionSize",
          "type": "uint256"
        },
        {
          "internalType": "uint256",
          "name": "_stopLoss",
          "type": "uint256"
        },
        {
          "internalType": "uint256",
          "name": "_takeProfit",
          "type": "uint256"
        },
        {
          "internalType": "uint256",
          "name": "_riskMultiplier",
          "type": "uint256"
        }
      ],
      "name": "setCopySettings",
      "outputs": [],
      "stateMutability": "payable",
      "type": "function"
    },
    {
      "inputs": [
        {
          "internalType": "address",
          "name": "_trader",
          "type": "address"
        }
      ],
      "name": "stopCopying",
      "outputs": [],
      "stateMutability": "nonpayable",
      "type": "function"
    },
    {
      "inputs": [
        {
          "internalType": "address",
          "name": "",
          "type": "address"
        }
      ],
      "name": "traders",
      "outputs": [
        {
          "internalType": "address",
          "name": "trader",
          "type": "address"
        },
        {
          "internalType": "bool",
          "name": "isVerified",
          "type": "bool"
        },
        {
          "internalType": "uint256",
          "name": "totalVolume",
          "type": "uint256"
        },
        {
          "internalType": "uint256",
          "name": "totalTrades",
          "type": "uint256"
        },
        {
          "internalType": "uint256",
          "name": "followers",
          "type": "uint256"
        },
        {
          "internalType": "uint256",
          "name": "maxCopyAmount",
          "type": "uint256"
        },
        {
          "internalType": "uint256",
          "name": "feeRate",
          "type": "uint256"
        }
      ],
      "stateMutability": "view",
      "type": "function"
    },
    {
      "inputs": [
        {
          "internalType": "address",
          "name": "newOwner",
          "type": "address"
        }
      ],
      "name": "transferOwnership",
      "outputs": [],
      "stateMutability": "nonpayable",
      "type": "function"
    },
    {
      "inputs": [],
      "name": "unpause",
      "outputs": [],
      "stateMutability": "nonpayable",
      "type": "function"
    },
    {
      "inputs": [
        {
          "internalType": "uint256",
          "name": "_newFeeRate",
          "type": "uint256"
        }
      ],
      "name": "updatePlatformFeeRate",
      "outputs": [],
      "stateMutability": "nonpayable",
      "type": "function"
    },
    {
      "inputs": [
        {
          "internalType": "uint256",
          "name": "_feeRate",
          "type": "uint256"
        },
        {
          "internalType": "uint256",
          "name": "_maxCopyAmount",
          "type": "uint256"
        }
      ],
      "name": "updateTraderSettings",
      "outputs": [],
      "stateMutability": "nonpayable",
      "type": "function"
    },
    {
      "inputs": [
        {
          "internalType": "address",
          "name": "",
          "type": "address"
        }
      ],
      "name": "userBalances",
      "outputs": [
        {
          "internalType": "uint256",
          "name": "",
          "type": "uint256"
        }
      ],
      "stateMutability": "view",
      "type": "function"
    },
    {
      "inputs": [
        {
          "internalType": "address",
          "name": "",
          "type": "address"
        },
        {
          "internalType": "uint256",
          "name": "",
          "type": "uint256"
        }
      ],
      "name": "userPositions",
      "outputs": [
        {
          "internalType": "uint256",
          "name": "",
          "type": "uint256"
        }
      ],
      "stateMutability": "view",
      "type": "function"
    },
    {
      "inputs": [
        {
          "internalType": "address",
          "name": "_trader",
          "type": "address"
        }
      ],
      "name": "verifyTrader",
      "outputs": [],
      "stateMutability": "nonpayable",
      "type": "function"
    },
    {
      "inputs": [
        {
          "internalType": "uint256",
          "name": "_amount",
          "type": "uint256"
        }
      ],
      "name": "withdraw",
      "outputs": [],
      "stateMutability": "nonpayable",
      "type": "function"
    }
  ],
  "bytecode": "0x6080346100d757601f611be138819003918201601f19168301916001600160401b038311848410176100dc578084926020946040528339810103126100d757516001600160a01b0390818116908190036100d757600160005533156100be5760018054336001600160a01b03198083168217909355604051949091167f8be0079c531659141344cd1fd0a4f28419497f9722a3daafe3b4186f6b6457e0600080a3600160075560646008556009541617600955611aee90816100f38239f35b604051631e4fbdf760e01b815260006004820152602490fd5b600080fd5b634e487b7160e01b600052604160045260246000fdfe6040608081526004908136101561001557600080fd5b600091823560e01c80631ae078d5146117615780631b25fa151461163a57806326224c6414611602578063298f2ac4146115e55780632a6bc2dd146115695780632d6ce61d146112475780632e1a7d4d146111645780633f4ba83a146110f55780634441aacb14610f90578063455ab8a014610ef95780634690484014610ed05780634cf3ed6314610cf157806350b9563414610c315780635c975abb14610c0a5780635e1b4d9914610bc15780636b3446d614610a6e578063715018a614610a115780637860fa21146109825780638456cb5914610921578063899346c7146109025780638da5cb5b146108d957806392a88fa21461085a57806399fbab88146106be5780639b45ec97146106a1578063ad428a3714610486578063ae3b7f0614610456578063b8f174cf146103f4578063c02495c31461038c578063c85a8ea2146102c4578063d0e30db014610231578063eeca08f01461020e5763f2fde38b1461018157600080fd5b3461020a57602036600319011261020a5761019a6117ee565b906101a36118d2565b6001600160a01b039182169283156101f4575050600154826001600160601b0360a01b821617600155167f8be0079c531659141344cd1fd0a4f28419497f9722a3daafe3b4186f6b6457e08380a380f35b51631e4fbdf760e01b8152908101849052602490fd5b8280fd5b50503461022d578160031936011261022d576020906008549051908152f35b5080fd5b508260031936011261020a5734156102895750338252600660205280822061025a3482546119c2565b9055513481527f543ba50a5eec5e6178218e364b1d0f396157b3c8fa278522c2cb7fd99407d47460203392a280f35b6020606492519162461bcd60e51b83528201526016602482015275125b9d985b1a590819195c1bdcda5d08185b5bdd5b9d60521b6044820152fd5b828434610389578060031936011261038957908051918290600a549182855260208095018093600a84527fc65a7bb8d6351c1cf70c95a316cc6a92839c986682d98bc35f958f4883f9d2a890845b81811061036c575050508161032891038261185a565b83519485948186019282875251809352850193925b82811061034c57505050500390f35b83516001600160a01b03168552869550938101939281019260010161033d565b82546001600160a01b031684529288019260019283019201610312565b80fd5b50503461022d57602036600319011261022d5760a0919060ff906001600160a01b036103b66117ee565b1683526002602052808320926005840154936003810154926001820154915493815196875260208701528501526060840152831c1615156080820152f35b50503461022d57602036600319011261022d5761040f6117ee565b338084526002602052828420546001600160a01b039161043191831614611a51565b3384526002602052600683852001911683526020528120600160ff1982541617905580f35b83823461022d57602036600319011261022d57356104726118d2565b6104806101f48211156118fe565b60085580f35b5082903461022d5760a036600319011261022d5767ffffffffffffffff90803582811161069d573660238201121561069d578082013592831161068a578451916020936104dc85601f19601f840116018561185a565b808452602492368483830101116106865781879285889301838801378501015281358015158091036106825760443591606435936105186119cf565b3388526002875260ff8989205460a01c161561064a5761271060843511610614578315158061060b575b156105d4575050957faa50eb31cc07432648d2950c825abb08a267324fab2d0e2ea28b6d4c4109157294959633885260028752600282892001610585815461198a565b905561059184846119af565b338952600288526105a96001848b20019182546119c2565b90556105bf825195608087526080870190611892565b9685015283015260608201528033930390a280f35b885162461bcd60e51b815291820187905260129082015271496e76616c696420706172616d657465727360701b6044820152606490fd5b50841515610542565b885162461bcd60e51b815291820187905260119082015270098caeccae4c2ceca40e8dede40d0d2ced607b1b6044820152606490fd5b885162461bcd60e51b8152918201879052601390820152722737ba103b32b934b334b2b2103a3930b232b960691b6044820152606490fd5b8580fd5b8680fd5b634e487b7160e01b845260418252602484fd5b8380fd5b50503461022d578160031936011261022d57602090516127108152f35b503461020a576020928360031936011261038957813581526005845282812080549360018060a01b03926001948486850154169460028501541691600385018451978282549283831c938d848216908115610850575b8610811461083d57918593918f95938e98978952908160001461081a57506001146107d5575b505050505060ff929161074e91038861185a565b840154169460058401546006850154906107a060078701549360088801549560ff60098a01541697600b600a8b01549a01549a81519e8f9e8f90815201528c01526101808060608d01528b0190611892565b97151560808a015260a089015260c088015260e087015261010086015215156101208501526101408401526101608301520390f35b81528381209695945091905b8183106108005750939450919250908201018961074e60ff388061073a565b8654948301840194909452948301948a93918301916107e1565b60ff19168689015250505050151560051b83010190508961074e60ff388061073a565b634e487b7160e01b845260228852602484fd5b95607f1695610714565b5091903461022d57602036600319011261022d5760e0926001600160a01b03928290846108856117ee565b16815260026020522090815492600183015460028401549160ff6005600387015495870154960154968251988116895260a01c16151560208801528601526060850152608084015260a083015260c0820152f35b50503461022d578160031936011261022d5760015490516001600160a01b039091168152602090f35b50503461022d578160031936011261022d576020906007549051908152f35b50503461022d578160031936011261022d5760207f62e78cea01bee320cd4e420270b5ea74000d11b0c9f74754ebdbfc544b05a2589161095f6118d2565b6109676119cf565b6001805460ff60a01b1916600160a01b17905551338152a180f35b50903461020a577f3943d65e7410abc027f3c82f3da1779a4f256768c22389669c212406c8a8c267906109b436611844565b80919433875260026020526109d53360018060a01b03868a20541614611a51565b6109e36103e88711156118fe565b6109ee82151561193e565b33875260026020528387208660058201550155815193845260208401523392a280f35b8334610389578060031936011261038957610a2a6118d2565b600180546001600160a01b0319811690915581906001600160a01b03167f8be0079c531659141344cd1fd0a4f28419497f9722a3daafe3b4186f6b6457e08280a380f35b5091903461022d57610a7f36611844565b610a8f6103e883949311156118fe565b610a9a81151561193e565b33845260026020528085838620336001600160601b0360a01b825416178155856005820155015560018490600a54915b828110610b89575b50610b0c575b50907fb21da2449cb57db93b012a0982d035eec835108a6107b2f930e794385d5d2f2091815193845260208401523392a280f35b68010000000000000000811015610b76577fb21da2449cb57db93b012a0982d035eec835108a6107b2f930e794385d5d2f2093949550806001610b529201600a556117a1565b81546001600160a01b0360039290921b91821b19163390911b179055849392610ad8565b634e487b7160e01b855260418652602485fd5b610b92816117a1565b905460039190911b1c6001600160a01b03163314610bb857610bb39061198a565b610aca565b50508438610ad2565b503461020a578160031936011261020a57610bda6117ee565b6001600160a01b031683526020528082208054602435919082101561069d57835260209283902001549051908152f35b50503461022d578160031936011261022d5760209060ff60015460a01c1690519015158152f35b50903461020a57602036600319011261020a57610c4c6117ee565b91610c556118d2565b6001600160a01b0392831680855260026020528285205490931615610cb7575081835260026020528220805460ff60a01b1916600160a01b1790557f1644dd3d2c8e5043d32e4908443aaf64bb66fc896c3736e3587058c2e2f48d898280a280f35b6020606492519162461bcd60e51b83528201526015602482015274151c9859195c881b9bdd081c9959da5cdd195c9959605a1b6044820152fd5b509060c036600319011261020a57610d076117ee565b6001600160a01b03168084526002602090815282852054919360243593919260a4359060a01c60ff1615610e98576113888511610e6057614e208111610e1e5785875260028452600683882001338852845260ff8388205416610de8577fd5f345449272693a6ea89c82dbe581351d745592c5bb577f7667ccd95172eb8893929160059133895260038552838920888a52855283892091886001600160601b0360a01b8454161783558760018401556044356002840155606435600384015560843590830155600682015501600160ff19825416179055519283523392a380f35b5082606492519162461bcd60e51b83528201526011602482015270213637b1b5b2b210313c903a3930b232b960791b6044820152fd5b5082606492519162461bcd60e51b8352820152601860248201527f5269736b206d756c7469706c69657220746f6f206869676800000000000000006044820152fd5b5082606492519162461bcd60e51b83528201526013602482015272082d8d8dec6c2e8d2dedc40e8dede40d0d2ced606b1b6044820152fd5b5082606492519162461bcd60e51b83528201526013602482015272151c9859195c881b9bdd081d995c9a599a5959606a1b6044820152fd5b50503461022d578160031936011261022d5760095490516001600160a01b039091168152602090f35b503461020a578160031936011261020a57610f126117ee565b6001600160a01b03906024358281169190829003610682579484918360e0971682526003602052828220908252602052209081541692600182015492600283015460038401549184015492600660ff600587015416950154958151978852602088015286015260608501526080840152151560a083015260c0820152f35b508234610389576020918260031936011261022d576001600160a01b03610fb56117ee565b1682528252828120928051808585829754938481520190855285852092855b878282106110df57505050610feb9250038561185a565b81805b855181101561103a576110018187611a8c565b5182526005855260ff6009848420015416611025575b6110209061198a565b610fee565b926110326110209161198a565b939050611017565b5091909361104782611aa0565b916110548651938461185a565b808352611063601f1991611aa0565b01368584013782805b82518110156110ce5761107f8184611a8c565b5182526005865260ff60098884200154166110a3575b61109e9061198a565b61106c565b936110c661109e916110b58786611a8c565b516110c08288611a8c565b5261198a565b949050611095565b8651806110db8682611809565b0390f35b855484526001958601958a955093019201610fd4565b503461020a578260031936011261020a5761110e6118d2565b6001549060ff8260a01c1615611156575060ff60a01b1916600155513381527f5db9ee0a495bf2e6ff9c91a7834c1ba4fdd244a5e8aa4e537bd38aeae4b073aa90602090a180f35b8251638dfc202b60e01b8152fd5b50903461020a57602036600319011261020a57813591600284541461123957600284558215611206575033835260066020526111a582828520541015611a01565b33835260066020528083206111bb838254611a44565b905582808080853382f1156111fb57519081527feaff4b37086828766ad3268786972c0cd24259d4c87a80f9d3963a3c3d999b0d60203392a26001815580f35b51913d9150823e3d90fd5b6020606492519162461bcd60e51b8352820152600e60248201526d125b9d985b1a5908185b5bdd5b9d60921b6044820152fd5b9051633ee5aeb560e01b8152fd5b5091903461022d5761125836611844565b818493929352602090600582528285206002810160018060a01b03918282541692338414801561155a575b156115265760098201805460ff8116156114e35786156114ab5760ff1916905584600a830155600691828101548087038b82128882128116908983139015161761144c578060ff8e850154161561149b575b50600583015481810291600160ff1b918e82128382141661148757818405149015171561147357821561145f57811460001983141661144c578b9c50907f188c5a1621fdf38505775be572d11aceb0b1e5f518d210077c6f1ca91399d29d9a9b92910595600b8201968088558381136000146113fd575050906113d7918654848754168352858a5261136b8b84209182546119c2565b9055896113a18560018a54940154169384815260028c526113966005612710948593200154856119af565b0492600854906119af565b04918d52848952898d206113b68282546119c2565b905583600954168d52848952898d206113d08382546119c2565b90556119c2565b925416895284526113ec858920918254611a44565b90555b54918351928352820152a280f35b93509450508112611411575b5050506113ef565b61141a906119f0565b91808a5281865261143083888c20541015611a01565b89528452611442858920918254611a44565b9055388080611409565b634e487b7160e01b8c5260118d5260248cfd5b50634e487b7160e01b8c5260128d5260248cfd5b50634e487b7160e01b8c5260118d5260248cfd5b8f8f6011602492634e487b7160e01b835252fd5b6114a591506119f0565b386112d5565b885162461bcd60e51b8152808d018990526012602482015271496e76616c6964206578697420707269636560701b6044820152606490fd5b885162461bcd60e51b8152808d01899052601760248201527f506f736974696f6e20616c726561647920636c6f7365640000000000000000006044820152606490fd5b865162461bcd60e51b8152808b01879052600e60248201526d139bdd08185d5d1a1bdc9a5e995960921b6044820152606490fd5b50338160018401541614611283565b50903461020a576020918260031936011261069d576001600160a01b0361158e6117ee565b16845282528083209281518093808654928381520195835280832092905b8282106115ce576110db86866115c4828b038361185a565b5191829182611809565b8354875295860195600193840193909101906115ac565b50503461022d578160031936011261022d57602090516113888152f35b50503461022d57602036600319011261022d5760209181906001600160a01b0361162a6117ee565b1681526006845220549051908152f35b5091903461022d5760208060031936011261020a576116576117ee565b338452600382528284206001600160a01b03909116808552908252828420600501805491939160ff81161561171e5760ff19169055828452600282528084206003018054801580156116d4575b5050507fd5f345449272693a6ea89c82dbe581351d745592c5bb577f7667ccd95172eb889051918483523392a380f35b61170b5760001901905592935083927fd5f345449272693a6ea89c82dbe581351d745592c5bb577f7667ccd95172eb8838806116a4565b634e487b7160e01b865260118752602486fd5b825162461bcd60e51b8152808801859052601760248201527f4e6f7420636f7079696e672074686973207472616465720000000000000000006044820152606490fd5b503461020a57602036600319011261020a573591600a54831015610389575061178b6020926117a1565b905491519160018060a01b039160031b1c168152f35b600a548110156117d857600a6000527fc65a7bb8d6351c1cf70c95a316cc6a92839c986682d98bc35f958f4883f9d2a80190600090565b634e487b7160e01b600052603260045260246000fd5b600435906001600160a01b038216820361180457565b600080fd5b6020908160408183019282815285518094520193019160005b828110611830575050505090565b835185529381019392810192600101611822565b6040906003190112611804576004359060243590565b90601f8019910116810190811067ffffffffffffffff82111761187c57604052565b634e487b7160e01b600052604160045260246000fd5b919082519283825260005b8481106118be575050826000602080949584010152601f8019910116010190565b60208183018101518483018201520161189d565b6001546001600160a01b031633036118e657565b60405163118cdaa760e01b8152336004820152602490fd5b1561190557565b60405162461bcd60e51b815260206004820152601160248201527008ccaca40e4c2e8ca40e8dede40d0d2ced607b1b6044820152606490fd5b1561194557565b60405162461bcd60e51b815260206004820152601760248201527f496e76616c6964206d617820636f707920616d6f756e740000000000000000006044820152606490fd5b60001981146119995760010190565b634e487b7160e01b600052601160045260246000fd5b8181029291811591840414171561199957565b9190820180921161199957565b60ff60015460a01c166119de57565b60405163d93c066560e01b8152600490fd5b600160ff1b81146119995760000390565b15611a0857565b60405162461bcd60e51b8152602060048201526014602482015273496e73756666696369656e742062616c616e636560601b6044820152606490fd5b9190820391821161199957565b15611a5857565b60405162461bcd60e51b815260206004820152600c60248201526b2737ba1030903a3930b232b960a11b6044820152606490fd5b80518210156117d85760209160051b010190565b67ffffffffffffffff811161187c5760051b6020019056fea264697066735822122080ed7a6e3cd1dbf35a643eda5bed4a3c087daaa0da2beb3e35c656e2f46e7b2064736f6c63430008140033",
  "linkReferences": {},
  "deployedLinkReferences": {}
}